{
  "_format": "hh-sol-artifact-1",
  "contractName": "Forging",
  "sourceName": "contracts/Forging.sol",
  "abi": [
    {
      "inputs": [
        {
          "internalType": "contract MultiToken",
          "name": "_token",
          "type": "address"
        }
      ],
      "stateMutability": "nonpayable",
      "type": "constructor"
    },
    {
      "inputs": [
        {
          "internalType": "uint256[]",
          "name": "ids",
          "type": "uint256[]"
        },
        {
          "internalType": "uint256[]",
          "name": "amounts",
          "type": "uint256[]"
        }
      ],
      "name": "forgeTokens",
      "outputs": [],
      "stateMutability": "nonpayable",
      "type": "function"
    },
    {
      "inputs": [
        {
          "internalType": "uint256[]",
          "name": "_tokenIds",
          "type": "uint256[]"
        },
        {
          "internalType": "uint256[]",
          "name": "_amount",
          "type": "uint256[]"
        }
      ],
      "name": "mintBatchToken",
      "outputs": [],
      "stateMutability": "nonpayable",
      "type": "function"
    },
    {
      "inputs": [
        {
          "internalType": "uint256",
          "name": "_tokenIdGive",
          "type": "uint256"
        },
        {
          "internalType": "uint256",
          "name": "_amountToExchange",
          "type": "uint256"
        },
        {
          "internalType": "uint256",
          "name": "_tokenIdReceive",
          "type": "uint256"
        }
      ],
      "name": "tradeTokens",
      "outputs": [],
      "stateMutability": "nonpayable",
      "type": "function"
    }
  ],
  "bytecode": "0x60806040523480156200001157600080fd5b5060405162001059380380620010598339818101604052810190620000379190620000fc565b806000806101000a81548173ffffffffffffffffffffffffffffffffffffffff021916908373ffffffffffffffffffffffffffffffffffffffff160217905550506200012e565b600080fd5b600073ffffffffffffffffffffffffffffffffffffffff82169050919050565b6000620000b08262000083565b9050919050565b6000620000c482620000a3565b9050919050565b620000d681620000b7565b8114620000e257600080fd5b50565b600081519050620000f681620000cb565b92915050565b6000602082840312156200011557620001146200007e565b5b60006200012584828501620000e5565b91505092915050565b610f1b806200013e6000396000f3fe608060405234801561001057600080fd5b50600436106100415760003560e01c80631022b560146100465780632d8dfa6414610062578063d0d27d081461007e575b600080fd5b610060600480360381019061005b91906109d8565b61009a565b005b61007c600480360381019061007791906109d8565b610381565b005b61009860048036038101906100939190610a50565b61059f565b005b6000816000815181106100b0576100af610aa3565b5b6020026020010151905060005b600183516100cb9190610b01565b81101561012f57826001826100e09190610b35565b815181106100f1576100f0610aa3565b5b602002602001015183828151811061010c5761010b610aa3565b5b60200260200101511461012257610121610b8b565b5b80806001019150506100bd565b50600383511015801561015d575060008360008151811061015357610152610aa3565b5b6020026020010151145b8015610184575060018360018151811061017a57610179610aa3565b5b6020026020010151145b156101d25760028360028151811061019f5761019e610aa3565b5b602002602001015114156101bf576101ba6006828585610711565b6101cd565b6101cc6003828585610711565b5b61037c565b6000836000815181106101e8576101e7610aa3565b5b6020026020010151148015610218575060018360018151811061020e5761020d610aa3565b5b6020026020010151145b1561022f5761022a6003828585610711565b61037b565b60018360008151811061024557610244610aa3565b5b6020026020010151148015610275575060028360018151811061026b5761026a610aa3565b5b6020026020010151145b1561028c576102876004828585610711565b61037a565b6000836000815181106102a2576102a1610aa3565b5b60200260200101511480156102d257506002836001815181106102c8576102c7610aa3565b5b6020026020010151145b156102e9576102e46005828585610711565b610379565b60008054906101000a900473ffffffffffffffffffffffffffffffffffffffff1673ffffffffffffffffffffffffffffffffffffffff16636b20c4543385856040518463ffffffff1660e01b815260040161034693929190610cb9565b600060405180830381600087803b15801561036057600080fd5b505af1158015610374573d6000803e3d6000fd5b505050505b5b5b5b505050565b42603c600160003373ffffffffffffffffffffffffffffffffffffffff1673ffffffffffffffffffffffffffffffffffffffff168152602001908152602001600020546103ce9190610b35565b1061040e576040517f08c379a000000000000000000000000000000000000000000000000000000000815260040161040590610d5b565b60405180910390fd5b60008260008151811061042457610423610aa3565b5b6020026020010151148015610454575060018260018151811061044a57610449610aa3565b5b6020026020010151145b801561047b575060028260028151811061047157610470610aa3565b5b6020026020010151145b801561048957506003825111155b6104c8576040517f08c379a00000000000000000000000000000000000000000000000000000000081526004016104bf90610ded565b60405180910390fd5b60008054906101000a900473ffffffffffffffffffffffffffffffffffffffff1673ffffffffffffffffffffffffffffffffffffffff1663d81d0a153384846040518463ffffffff1660e01b815260040161052593929190610cb9565b600060405180830381600087803b15801561053f57600080fd5b505af1158015610553573d6000803e3d6000fd5b5050505042600160003373ffffffffffffffffffffffffffffffffffffffff1673ffffffffffffffffffffffffffffffffffffffff168152602001908152602001600020819055505050565b60028311806105ae5750600281115b156105ee576040517f08c379a00000000000000000000000000000000000000000000000000000000081526004016105e590610e7f565b60405180910390fd5b60008054906101000a900473ffffffffffffffffffffffffffffffffffffffff1673ffffffffffffffffffffffffffffffffffffffff1663f5298aca3385856040518463ffffffff1660e01b815260040161064b93929190610eae565b600060405180830381600087803b15801561066557600080fd5b505af1158015610679573d6000803e3d6000fd5b5050505060008054906101000a900473ffffffffffffffffffffffffffffffffffffffff1673ffffffffffffffffffffffffffffffffffffffff1663156e29f63383856040518463ffffffff1660e01b81526004016106da93929190610eae565b600060405180830381600087803b1580156106f457600080fd5b505af1158015610708573d6000803e3d6000fd5b50505050505050565b60008054906101000a900473ffffffffffffffffffffffffffffffffffffffff1673ffffffffffffffffffffffffffffffffffffffff16636b20c4543384846040518463ffffffff1660e01b815260040161076e93929190610cb9565b600060405180830381600087803b15801561078857600080fd5b505af115801561079c573d6000803e3d6000fd5b5050505060008054906101000a900473ffffffffffffffffffffffffffffffffffffffff1673ffffffffffffffffffffffffffffffffffffffff1663156e29f63386866040518463ffffffff1660e01b81526004016107fd93929190610eae565b600060405180830381600087803b15801561081757600080fd5b505af115801561082b573d6000803e3d6000fd5b5050505050505050565b6000604051905090565b600080fd5b600080fd5b600080fd5b6000601f19601f8301169050919050565b7f4e487b7100000000000000000000000000000000000000000000000000000000600052604160045260246000fd5b6108978261084e565b810181811067ffffffffffffffff821117156108b6576108b561085f565b5b80604052505050565b60006108c9610835565b90506108d5828261088e565b919050565b600067ffffffffffffffff8211156108f5576108f461085f565b5b602082029050602081019050919050565b600080fd5b6000819050919050565b61091e8161090b565b811461092957600080fd5b50565b60008135905061093b81610915565b92915050565b600061095461094f846108da565b6108bf565b9050808382526020820190506020840283018581111561097757610976610906565b5b835b818110156109a0578061098c888261092c565b845260208401935050602081019050610979565b5050509392505050565b600082601f8301126109bf576109be610849565b5b81356109cf848260208601610941565b91505092915050565b600080604083850312156109ef576109ee61083f565b5b600083013567ffffffffffffffff811115610a0d57610a0c610844565b5b610a19858286016109aa565b925050602083013567ffffffffffffffff811115610a3a57610a39610844565b5b610a46858286016109aa565b9150509250929050565b600080600060608486031215610a6957610a6861083f565b5b6000610a778682870161092c565b9350506020610a888682870161092c565b9250506040610a998682870161092c565b9150509250925092565b7f4e487b7100000000000000000000000000000000000000000000000000000000600052603260045260246000fd5b7f4e487b7100000000000000000000000000000000000000000000000000000000600052601160045260246000fd5b6000610b0c8261090b565b9150610b178361090b565b925082821015610b2a57610b29610ad2565b5b828203905092915050565b6000610b408261090b565b9150610b4b8361090b565b9250827fffffffffffffffffffffffffffffffffffffffffffffffffffffffffffffffff03821115610b8057610b7f610ad2565b5b828201905092915050565b7f4e487b7100000000000000000000000000000000000000000000000000000000600052600160045260246000fd5b600073ffffffffffffffffffffffffffffffffffffffff82169050919050565b6000610be582610bba565b9050919050565b610bf581610bda565b82525050565b600081519050919050565b600082825260208201905092915050565b6000819050602082019050919050565b610c308161090b565b82525050565b6000610c428383610c27565b60208301905092915050565b6000602082019050919050565b6000610c6682610bfb565b610c708185610c06565b9350610c7b83610c17565b8060005b83811015610cac578151610c938882610c36565b9750610c9e83610c4e565b925050600181019050610c7f565b5085935050505092915050565b6000606082019050610cce6000830186610bec565b8181036020830152610ce08185610c5b565b90508181036040830152610cf48184610c5b565b9050949350505050565b600082825260208201905092915050565b7f464f5247494e473a20506c6561736520776169742031206d696e7574652e0000600082015250565b6000610d45601e83610cfe565b9150610d5082610d0f565b602082019050919050565b60006020820190508181036000830152610d7481610d38565b9050919050565b7f464f5247494e473a20596f752063616e206d696e74206f6e6c7920746f6b656e60008201527f7320302c3120616e6420322e0000000000000000000000000000000000000000602082015250565b6000610dd7602c83610cfe565b9150610de282610d7b565b604082019050919050565b60006020820190508181036000830152610e0681610dca565b9050919050565b7f464f5247494e473a20596f752063616e207472616465206f6e6c7920746f6b6560008201527f6e7320302c312c20616e6420322e000000000000000000000000000000000000602082015250565b6000610e69602e83610cfe565b9150610e7482610e0d565b604082019050919050565b60006020820190508181036000830152610e9881610e5c565b9050919050565b610ea88161090b565b82525050565b6000606082019050610ec36000830186610bec565b610ed06020830185610e9f565b610edd6040830184610e9f565b94935050505056fea2646970667358221220fc922be1ca131024f37776f88d58ea35ec7a59e5c4ac7e4439c420bc484cf25764736f6c63430008090033",
  "linkReferences": {},
  "deployedLinkReferences": {}
}