{
  "_format": "hh-sol-artifact-1",
  "contractName": "MultiToken",
  "sourceName": "contracts/MultiToken.sol",
  "abi": [
    {
      "inputs": [],
      "stateMutability": "nonpayable",
      "type": "constructor"
    },
    {
      "anonymous": false,
      "inputs": [
        {
          "indexed": true,
          "internalType": "address",
          "name": "account",
          "type": "address"
        },
        {
          "indexed": true,
          "internalType": "address",
          "name": "operator",
          "type": "address"
        },
        {
          "indexed": false,
          "internalType": "bool",
          "name": "approved",
          "type": "bool"
        }
      ],
      "name": "ApprovalForAll",
      "type": "event"
    },
    {
      "anonymous": false,
      "inputs": [
        {
          "indexed": true,
          "internalType": "address",
          "name": "previousOwner",
          "type": "address"
        },
        {
          "indexed": true,
          "internalType": "address",
          "name": "newOwner",
          "type": "address"
        }
      ],
      "name": "OwnershipTransferred",
      "type": "event"
    },
    {
      "anonymous": false,
      "inputs": [
        {
          "indexed": true,
          "internalType": "address",
          "name": "operator",
          "type": "address"
        },
        {
          "indexed": true,
          "internalType": "address",
          "name": "from",
          "type": "address"
        },
        {
          "indexed": true,
          "internalType": "address",
          "name": "to",
          "type": "address"
        },
        {
          "indexed": false,
          "internalType": "uint256[]",
          "name": "ids",
          "type": "uint256[]"
        },
        {
          "indexed": false,
          "internalType": "uint256[]",
          "name": "values",
          "type": "uint256[]"
        }
      ],
      "name": "TransferBatch",
      "type": "event"
    },
    {
      "anonymous": false,
      "inputs": [
        {
          "indexed": true,
          "internalType": "address",
          "name": "operator",
          "type": "address"
        },
        {
          "indexed": true,
          "internalType": "address",
          "name": "from",
          "type": "address"
        },
        {
          "indexed": true,
          "internalType": "address",
          "name": "to",
          "type": "address"
        },
        {
          "indexed": false,
          "internalType": "uint256",
          "name": "id",
          "type": "uint256"
        },
        {
          "indexed": false,
          "internalType": "uint256",
          "name": "value",
          "type": "uint256"
        }
      ],
      "name": "TransferSingle",
      "type": "event"
    },
    {
      "anonymous": false,
      "inputs": [
        {
          "indexed": false,
          "internalType": "string",
          "name": "value",
          "type": "string"
        },
        {
          "indexed": true,
          "internalType": "uint256",
          "name": "id",
          "type": "uint256"
        }
      ],
      "name": "URI",
      "type": "event"
    },
    {
      "inputs": [
        {
          "internalType": "address",
          "name": "account",
          "type": "address"
        },
        {
          "internalType": "uint256",
          "name": "id",
          "type": "uint256"
        }
      ],
      "name": "balanceOf",
      "outputs": [
        {
          "internalType": "uint256",
          "name": "",
          "type": "uint256"
        }
      ],
      "stateMutability": "view",
      "type": "function"
    },
    {
      "inputs": [
        {
          "internalType": "address[]",
          "name": "accounts",
          "type": "address[]"
        },
        {
          "internalType": "uint256[]",
          "name": "ids",
          "type": "uint256[]"
        }
      ],
      "name": "balanceOfBatch",
      "outputs": [
        {
          "internalType": "uint256[]",
          "name": "",
          "type": "uint256[]"
        }
      ],
      "stateMutability": "view",
      "type": "function"
    },
    {
      "inputs": [
        {
          "internalType": "address",
          "name": "account",
          "type": "address"
        },
        {
          "internalType": "uint256",
          "name": "id",
          "type": "uint256"
        },
        {
          "internalType": "uint256",
          "name": "amount",
          "type": "uint256"
        }
      ],
      "name": "burn",
      "outputs": [],
      "stateMutability": "nonpayable",
      "type": "function"
    },
    {
      "inputs": [
        {
          "internalType": "address",
          "name": "account",
          "type": "address"
        },
        {
          "internalType": "uint256[]",
          "name": "ids",
          "type": "uint256[]"
        },
        {
          "internalType": "uint256[]",
          "name": "amounts",
          "type": "uint256[]"
        }
      ],
      "name": "burnBatch",
      "outputs": [],
      "stateMutability": "nonpayable",
      "type": "function"
    },
    {
      "inputs": [
        {
          "internalType": "address",
          "name": "account",
          "type": "address"
        },
        {
          "internalType": "address",
          "name": "operator",
          "type": "address"
        }
      ],
      "name": "isApprovedForAll",
      "outputs": [
        {
          "internalType": "bool",
          "name": "",
          "type": "bool"
        }
      ],
      "stateMutability": "view",
      "type": "function"
    },
    {
      "inputs": [
        {
          "internalType": "address",
          "name": "account",
          "type": "address"
        },
        {
          "internalType": "uint256",
          "name": "id",
          "type": "uint256"
        },
        {
          "internalType": "uint256",
          "name": "amount",
          "type": "uint256"
        }
      ],
      "name": "mint",
      "outputs": [],
      "stateMutability": "nonpayable",
      "type": "function"
    },
    {
      "inputs": [
        {
          "internalType": "address",
          "name": "account",
          "type": "address"
        },
        {
          "internalType": "uint256[]",
          "name": "ids",
          "type": "uint256[]"
        },
        {
          "internalType": "uint256[]",
          "name": "amounts",
          "type": "uint256[]"
        }
      ],
      "name": "mintBatch",
      "outputs": [],
      "stateMutability": "nonpayable",
      "type": "function"
    },
    {
      "inputs": [],
      "name": "owner",
      "outputs": [
        {
          "internalType": "address",
          "name": "",
          "type": "address"
        }
      ],
      "stateMutability": "view",
      "type": "function"
    },
    {
      "inputs": [],
      "name": "renounceOwnership",
      "outputs": [],
      "stateMutability": "nonpayable",
      "type": "function"
    },
    {
      "inputs": [
        {
          "internalType": "address",
          "name": "from",
          "type": "address"
        },
        {
          "internalType": "address",
          "name": "to",
          "type": "address"
        },
        {
          "internalType": "uint256[]",
          "name": "ids",
          "type": "uint256[]"
        },
        {
          "internalType": "uint256[]",
          "name": "amounts",
          "type": "uint256[]"
        },
        {
          "internalType": "bytes",
          "name": "data",
          "type": "bytes"
        }
      ],
      "name": "safeBatchTransferFrom",
      "outputs": [],
      "stateMutability": "nonpayable",
      "type": "function"
    },
    {
      "inputs": [
        {
          "internalType": "address",
          "name": "from",
          "type": "address"
        },
        {
          "internalType": "address",
          "name": "to",
          "type": "address"
        },
        {
          "internalType": "uint256",
          "name": "id",
          "type": "uint256"
        },
        {
          "internalType": "uint256",
          "name": "amount",
          "type": "uint256"
        },
        {
          "internalType": "bytes",
          "name": "data",
          "type": "bytes"
        }
      ],
      "name": "safeTransferFrom",
      "outputs": [],
      "stateMutability": "nonpayable",
      "type": "function"
    },
    {
      "inputs": [
        {
          "internalType": "address",
          "name": "operator",
          "type": "address"
        },
        {
          "internalType": "bool",
          "name": "approved",
          "type": "bool"
        }
      ],
      "name": "setApprovalForAll",
      "outputs": [],
      "stateMutability": "nonpayable",
      "type": "function"
    },
    {
      "inputs": [
        {
          "internalType": "address",
          "name": "_minter",
          "type": "address"
        }
      ],
      "name": "setMinter",
      "outputs": [],
      "stateMutability": "nonpayable",
      "type": "function"
    },
    {
      "inputs": [
        {
          "internalType": "uint256",
          "name": "_tokenId",
          "type": "uint256"
        },
        {
          "internalType": "string",
          "name": "_newUri",
          "type": "string"
        }
      ],
      "name": "setURI",
      "outputs": [],
      "stateMutability": "nonpayable",
      "type": "function"
    },
    {
      "inputs": [
        {
          "internalType": "bytes4",
          "name": "interfaceId",
          "type": "bytes4"
        }
      ],
      "name": "supportsInterface",
      "outputs": [
        {
          "internalType": "bool",
          "name": "",
          "type": "bool"
        }
      ],
      "stateMutability": "view",
      "type": "function"
    },
    {
      "inputs": [
        {
          "internalType": "address",
          "name": "newOwner",
          "type": "address"
        }
      ],
      "name": "transferOwnership",
      "outputs": [],
      "stateMutability": "nonpayable",
      "type": "function"
    },
    {
      "inputs": [
        {
          "internalType": "uint256",
          "name": "_tokenId",
          "type": "uint256"
        }
      ],
      "name": "uri",
      "outputs": [
        {
          "internalType": "string",
          "name": "",
          "type": "string"
        }
      ],
      "stateMutability": "view",
      "type": "function"
    }
  ],
  "bytecode": "0x60806040523480156200001157600080fd5b506040518060200160405280600081525062000033816200005a60201b60201c565b5062000054620000486200007660201b60201c565b6200007e60201b60201c565b62000259565b80600290805190602001906200007292919062000144565b5050565b600033905090565b6000600360009054906101000a900473ffffffffffffffffffffffffffffffffffffffff16905081600360006101000a81548173ffffffffffffffffffffffffffffffffffffffff021916908373ffffffffffffffffffffffffffffffffffffffff1602179055508173ffffffffffffffffffffffffffffffffffffffff168173ffffffffffffffffffffffffffffffffffffffff167f8be0079c531659141344cd1fd0a4f28419497f9722a3daafe3b4186f6b6457e060405160405180910390a35050565b828054620001529062000223565b90600052602060002090601f016020900481019282620001765760008555620001c2565b82601f106200019157805160ff1916838001178555620001c2565b82800160010185558215620001c2579182015b82811115620001c1578251825591602001919060010190620001a4565b5b509050620001d19190620001d5565b5090565b5b80821115620001f0576000816000905550600101620001d6565b5090565b7f4e487b7100000000000000000000000000000000000000000000000000000000600052602260045260246000fd5b600060028204905060018216806200023c57607f821691505b60208210811415620002535762000252620001f4565b5b50919050565b613de280620002696000396000f3fe608060405234801561001057600080fd5b506004361061010a5760003560e01c8063862440e2116100a2578063e985e9c511610071578063e985e9c51461029f578063f242432a146102cf578063f2fde38b146102eb578063f5298aca14610307578063fca3b5aa146103235761010a565b8063862440e21461022d5780638da5cb5b14610249578063a22cb46514610267578063d81d0a15146102835761010a565b80632eb2c2d6116100de5780632eb2c2d6146101bb5780634e1273f4146101d75780636b20c45414610207578063715018a6146102235761010a565b8062fdd58e1461010f57806301ffc9a71461013f5780630e89341c1461016f578063156e29f61461019f575b600080fd5b610129600480360381019061012491906125dc565b61033f565b604051610136919061262b565b60405180910390f35b6101596004803603810190610154919061269e565b610408565b60405161016691906126e6565b60405180910390f35b61018960048036038101906101849190612701565b6104ea565b60405161019691906127c7565b60405180910390f35b6101b960048036038101906101b491906127e9565b61052f565b005b6101d560048036038101906101d09190612a39565b6105df565b005b6101f160048036038101906101ec9190612bcb565b610680565b6040516101fe9190612d01565b60405180910390f35b610221600480360381019061021c9190612d23565b610799565b005b61022b610839565b005b61024760048036038101906102429190612e4f565b61084d565b005b610251610881565b60405161025e9190612eba565b60405180910390f35b610281600480360381019061027c9190612f01565b6108ab565b005b61029d60048036038101906102989190612d23565b6108c1565b005b6102b960048036038101906102b49190612f41565b610971565b6040516102c691906126e6565b60405180910390f35b6102e960048036038101906102e49190612f81565b610a05565b005b61030560048036038101906103009190613018565b610aa6565b005b610321600480360381019061031c91906127e9565b610b2a565b005b61033d60048036038101906103389190613018565b610bca565b005b60008073ffffffffffffffffffffffffffffffffffffffff168373ffffffffffffffffffffffffffffffffffffffff1614156103b0576040517f08c379a00000000000000000000000000000000000000000000000000000000081526004016103a7906130b7565b60405180910390fd5b60008083815260200190815260200160002060008473ffffffffffffffffffffffffffffffffffffffff1673ffffffffffffffffffffffffffffffffffffffff16815260200190815260200160002054905092915050565b60007fd9b67a26000000000000000000000000000000000000000000000000000000007bffffffffffffffffffffffffffffffffffffffffffffffffffffffff1916827bffffffffffffffffffffffffffffffffffffffffffffffffffffffff191614806104d357507f0e89341c000000000000000000000000000000000000000000000000000000007bffffffffffffffffffffffffffffffffffffffffffffffffffffffff1916827bffffffffffffffffffffffffffffffffffffffffffffffffffffffff1916145b806104e357506104e282610c16565b5b9050919050565b60606004600083815260200190815260200160002061050883610c80565b604051602001610519929190613208565b6040516020818303038152906040529050919050565b600560009054906101000a900473ffffffffffffffffffffffffffffffffffffffff1673ffffffffffffffffffffffffffffffffffffffff163373ffffffffffffffffffffffffffffffffffffffff16146105bf576040517f08c379a00000000000000000000000000000000000000000000000000000000081526004016105b69061329e565b60405180910390fd5b6105da83838360405180602001604052806000815250610d58565b505050565b6105e7610f09565b73ffffffffffffffffffffffffffffffffffffffff168573ffffffffffffffffffffffffffffffffffffffff16148061062d575061062c85610627610f09565b610971565b5b61066c576040517f08c379a000000000000000000000000000000000000000000000000000000000815260040161066390613330565b60405180910390fd5b6106798585858585610f11565b5050505050565b606081518351146106c6576040517f08c379a00000000000000000000000000000000000000000000000000000000081526004016106bd906133c2565b60405180910390fd5b6000835167ffffffffffffffff8111156106e3576106e2612841565b5b6040519080825280602002602001820160405280156107115781602001602082028036833780820191505090505b50905060005b845181101561078e5761075e858281518110610736576107356133e2565b5b6020026020010151858381518110610751576107506133e2565b5b602002602001015161033f565b828281518110610771576107706133e2565b5b6020026020010181815250508061078790613440565b9050610717565b508091505092915050565b600560009054906101000a900473ffffffffffffffffffffffffffffffffffffffff1673ffffffffffffffffffffffffffffffffffffffff163373ffffffffffffffffffffffffffffffffffffffff1614610829576040517f08c379a00000000000000000000000000000000000000000000000000000000081526004016108209061329e565b60405180910390fd5b610834838383611233565b505050565b610841611502565b61084b6000611580565b565b610855611502565b8060046000848152602001908152602001600020908051906020019061087c929190612491565b505050565b6000600360009054906101000a900473ffffffffffffffffffffffffffffffffffffffff16905090565b6108bd6108b6610f09565b8383611646565b5050565b600560009054906101000a900473ffffffffffffffffffffffffffffffffffffffff1673ffffffffffffffffffffffffffffffffffffffff163373ffffffffffffffffffffffffffffffffffffffff1614610951576040517f08c379a00000000000000000000000000000000000000000000000000000000081526004016109489061329e565b60405180910390fd5b61096c838383604051806020016040528060008152506117b3565b505050565b6000600160008473ffffffffffffffffffffffffffffffffffffffff1673ffffffffffffffffffffffffffffffffffffffff16815260200190815260200160002060008373ffffffffffffffffffffffffffffffffffffffff1673ffffffffffffffffffffffffffffffffffffffff16815260200190815260200160002060009054906101000a900460ff16905092915050565b610a0d610f09565b73ffffffffffffffffffffffffffffffffffffffff168573ffffffffffffffffffffffffffffffffffffffff161480610a535750610a5285610a4d610f09565b610971565b5b610a92576040517f08c379a0000000000000000000000000000000000000000000000000000000008152600401610a8990613330565b60405180910390fd5b610a9f85858585856119e0565b5050505050565b610aae611502565b600073ffffffffffffffffffffffffffffffffffffffff168173ffffffffffffffffffffffffffffffffffffffff161415610b1e576040517f08c379a0000000000000000000000000000000000000000000000000000000008152600401610b15906134fb565b60405180910390fd5b610b2781611580565b50565b600560009054906101000a900473ffffffffffffffffffffffffffffffffffffffff1673ffffffffffffffffffffffffffffffffffffffff163373ffffffffffffffffffffffffffffffffffffffff1614610bba576040517f08c379a0000000000000000000000000000000000000000000000000000000008152600401610bb19061329e565b60405180910390fd5b610bc5838383611c7c565b505050565b610bd2611502565b80600560006101000a81548173ffffffffffffffffffffffffffffffffffffffff021916908373ffffffffffffffffffffffffffffffffffffffff16021790555050565b60007f01ffc9a7000000000000000000000000000000000000000000000000000000007bffffffffffffffffffffffffffffffffffffffffffffffffffffffff1916827bffffffffffffffffffffffffffffffffffffffffffffffffffffffff1916149050919050565b606060006001610c8f84611ec3565b01905060008167ffffffffffffffff811115610cae57610cad612841565b5b6040519080825280601f01601f191660200182016040528015610ce05781602001600182028036833780820191505090505b509050600082602001820190505b600115610d4d578080600190039150507f3031323334353637383961626364656600000000000000000000000000000000600a86061a8153600a8581610d3757610d3661351b565b5b0494506000851415610d4857610d4d565b610cee565b819350505050919050565b600073ffffffffffffffffffffffffffffffffffffffff168473ffffffffffffffffffffffffffffffffffffffff161415610dc8576040517f08c379a0000000000000000000000000000000000000000000000000000000008152600401610dbf906135bc565b60405180910390fd5b6000610dd2610f09565b90506000610ddf85612016565b90506000610dec85612016565b9050610dfd83600089858589612090565b8460008088815260200190815260200160002060008973ffffffffffffffffffffffffffffffffffffffff1673ffffffffffffffffffffffffffffffffffffffff1681526020019081526020016000206000828254610e5c91906135dc565b925050819055508673ffffffffffffffffffffffffffffffffffffffff16600073ffffffffffffffffffffffffffffffffffffffff168473ffffffffffffffffffffffffffffffffffffffff167fc3d58168c5ae7397731d063d5bbf3d657854427343f4c083240f7aacaa2d0f628989604051610eda929190613632565b60405180910390a4610ef183600089858589612098565b610f00836000898989896120a0565b50505050505050565b600033905090565b8151835114610f55576040517f08c379a0000000000000000000000000000000000000000000000000000000008152600401610f4c906136cd565b60405180910390fd5b600073ffffffffffffffffffffffffffffffffffffffff168473ffffffffffffffffffffffffffffffffffffffff161415610fc5576040517f08c379a0000000000000000000000000000000000000000000000000000000008152600401610fbc9061375f565b60405180910390fd5b6000610fcf610f09565b9050610fdf818787878787612090565b60005b845181101561119057600085828151811061100057610fff6133e2565b5b60200260200101519050600085838151811061101f5761101e6133e2565b5b60200260200101519050600080600084815260200190815260200160002060008b73ffffffffffffffffffffffffffffffffffffffff1673ffffffffffffffffffffffffffffffffffffffff168152602001908152602001600020549050818110156110c0576040517f08c379a00000000000000000000000000000000000000000000000000000000081526004016110b7906137f1565b60405180910390fd5b81810360008085815260200190815260200160002060008c73ffffffffffffffffffffffffffffffffffffffff1673ffffffffffffffffffffffffffffffffffffffff168152602001908152602001600020819055508160008085815260200190815260200160002060008b73ffffffffffffffffffffffffffffffffffffffff1673ffffffffffffffffffffffffffffffffffffffff168152602001908152602001600020600082825461117591906135dc565b925050819055505050508061118990613440565b9050610fe2565b508473ffffffffffffffffffffffffffffffffffffffff168673ffffffffffffffffffffffffffffffffffffffff168273ffffffffffffffffffffffffffffffffffffffff167f4a39dc06d4c0dbc64b70af90fd698a233a518aa5d07e595d983b8c0526c8f7fb8787604051611207929190613811565b60405180910390a461121d818787878787612098565b61122b818787878787612287565b505050505050565b600073ffffffffffffffffffffffffffffffffffffffff168373ffffffffffffffffffffffffffffffffffffffff1614156112a3576040517f08c379a000000000000000000000000000000000000000000000000000000000815260040161129a906138ba565b60405180910390fd5b80518251146112e7576040517f08c379a00000000000000000000000000000000000000000000000000000000081526004016112de906136cd565b60405180910390fd5b60006112f1610f09565b905061131181856000868660405180602001604052806000815250612090565b60005b835181101561145e576000848281518110611332576113316133e2565b5b602002602001015190506000848381518110611351576113506133e2565b5b60200260200101519050600080600084815260200190815260200160002060008973ffffffffffffffffffffffffffffffffffffffff1673ffffffffffffffffffffffffffffffffffffffff168152602001908152602001600020549050818110156113f2576040517f08c379a00000000000000000000000000000000000000000000000000000000081526004016113e99061394c565b60405180910390fd5b81810360008085815260200190815260200160002060008a73ffffffffffffffffffffffffffffffffffffffff1673ffffffffffffffffffffffffffffffffffffffff16815260200190815260200160002081905550505050808061145690613440565b915050611314565b50600073ffffffffffffffffffffffffffffffffffffffff168473ffffffffffffffffffffffffffffffffffffffff168273ffffffffffffffffffffffffffffffffffffffff167f4a39dc06d4c0dbc64b70af90fd698a233a518aa5d07e595d983b8c0526c8f7fb86866040516114d6929190613811565b60405180910390a46114fc81856000868660405180602001604052806000815250612098565b50505050565b61150a610f09565b73ffffffffffffffffffffffffffffffffffffffff16611528610881565b73ffffffffffffffffffffffffffffffffffffffff161461157e576040517f08c379a0000000000000000000000000000000000000000000000000000000008152600401611575906139b8565b60405180910390fd5b565b6000600360009054906101000a900473ffffffffffffffffffffffffffffffffffffffff16905081600360006101000a81548173ffffffffffffffffffffffffffffffffffffffff021916908373ffffffffffffffffffffffffffffffffffffffff1602179055508173ffffffffffffffffffffffffffffffffffffffff168173ffffffffffffffffffffffffffffffffffffffff167f8be0079c531659141344cd1fd0a4f28419497f9722a3daafe3b4186f6b6457e060405160405180910390a35050565b8173ffffffffffffffffffffffffffffffffffffffff168373ffffffffffffffffffffffffffffffffffffffff1614156116b5576040517f08c379a00000000000000000000000000000000000000000000000000000000081526004016116ac90613a4a565b60405180910390fd5b80600160008573ffffffffffffffffffffffffffffffffffffffff1673ffffffffffffffffffffffffffffffffffffffff16815260200190815260200160002060008473ffffffffffffffffffffffffffffffffffffffff1673ffffffffffffffffffffffffffffffffffffffff16815260200190815260200160002060006101000a81548160ff0219169083151502179055508173ffffffffffffffffffffffffffffffffffffffff168373ffffffffffffffffffffffffffffffffffffffff167f17307eab39ab6107e8899845ad3d59bd9653f200f220920489ca2b5937696c31836040516117a691906126e6565b60405180910390a3505050565b600073ffffffffffffffffffffffffffffffffffffffff168473ffffffffffffffffffffffffffffffffffffffff161415611823576040517f08c379a000000000000000000000000000000000000000000000000000000000815260040161181a906135bc565b60405180910390fd5b8151835114611867576040517f08c379a000000000000000000000000000000000000000000000000000000000815260040161185e906136cd565b60405180910390fd5b6000611871610f09565b905061188281600087878787612090565b60005b845181101561193b578381815181106118a1576118a06133e2565b5b60200260200101516000808784815181106118bf576118be6133e2565b5b6020026020010151815260200190815260200160002060008873ffffffffffffffffffffffffffffffffffffffff1673ffffffffffffffffffffffffffffffffffffffff168152602001908152602001600020600082825461192191906135dc565b92505081905550808061193390613440565b915050611885565b508473ffffffffffffffffffffffffffffffffffffffff16600073ffffffffffffffffffffffffffffffffffffffff168273ffffffffffffffffffffffffffffffffffffffff167f4a39dc06d4c0dbc64b70af90fd698a233a518aa5d07e595d983b8c0526c8f7fb87876040516119b3929190613811565b60405180910390a46119ca81600087878787612098565b6119d981600087878787612287565b5050505050565b600073ffffffffffffffffffffffffffffffffffffffff168473ffffffffffffffffffffffffffffffffffffffff161415611a50576040517f08c379a0000000000000000000000000000000000000000000000000000000008152600401611a479061375f565b60405180910390fd5b6000611a5a610f09565b90506000611a6785612016565b90506000611a7485612016565b9050611a84838989858589612090565b600080600088815260200190815260200160002060008a73ffffffffffffffffffffffffffffffffffffffff1673ffffffffffffffffffffffffffffffffffffffff16815260200190815260200160002054905085811015611b1b576040517f08c379a0000000000000000000000000000000000000000000000000000000008152600401611b12906137f1565b60405180910390fd5b85810360008089815260200190815260200160002060008b73ffffffffffffffffffffffffffffffffffffffff1673ffffffffffffffffffffffffffffffffffffffff168152602001908152602001600020819055508560008089815260200190815260200160002060008a73ffffffffffffffffffffffffffffffffffffffff1673ffffffffffffffffffffffffffffffffffffffff1681526020019081526020016000206000828254611bd091906135dc565b925050819055508773ffffffffffffffffffffffffffffffffffffffff168973ffffffffffffffffffffffffffffffffffffffff168573ffffffffffffffffffffffffffffffffffffffff167fc3d58168c5ae7397731d063d5bbf3d657854427343f4c083240f7aacaa2d0f628a8a604051611c4d929190613632565b60405180910390a4611c63848a8a86868a612098565b611c71848a8a8a8a8a6120a0565b505050505050505050565b600073ffffffffffffffffffffffffffffffffffffffff168373ffffffffffffffffffffffffffffffffffffffff161415611cec576040517f08c379a0000000000000000000000000000000000000000000000000000000008152600401611ce3906138ba565b60405180910390fd5b6000611cf6610f09565b90506000611d0384612016565b90506000611d1084612016565b9050611d3083876000858560405180602001604052806000815250612090565b600080600087815260200190815260200160002060008873ffffffffffffffffffffffffffffffffffffffff1673ffffffffffffffffffffffffffffffffffffffff16815260200190815260200160002054905084811015611dc7576040517f08c379a0000000000000000000000000000000000000000000000000000000008152600401611dbe9061394c565b60405180910390fd5b84810360008088815260200190815260200160002060008973ffffffffffffffffffffffffffffffffffffffff1673ffffffffffffffffffffffffffffffffffffffff16815260200190815260200160002081905550600073ffffffffffffffffffffffffffffffffffffffff168773ffffffffffffffffffffffffffffffffffffffff168573ffffffffffffffffffffffffffffffffffffffff167fc3d58168c5ae7397731d063d5bbf3d657854427343f4c083240f7aacaa2d0f628989604051611e94929190613632565b60405180910390a4611eba84886000868660405180602001604052806000815250612098565b50505050505050565b600080600090507a184f03e93ff9f4daa797ed6e38ed64bf6a1f0100000000000000008310611f21577a184f03e93ff9f4daa797ed6e38ed64bf6a1f0100000000000000008381611f1757611f1661351b565b5b0492506040810190505b6d04ee2d6d415b85acef81000000008310611f5e576d04ee2d6d415b85acef81000000008381611f5457611f5361351b565b5b0492506020810190505b662386f26fc100008310611f8d57662386f26fc100008381611f8357611f8261351b565b5b0492506010810190505b6305f5e1008310611fb6576305f5e1008381611fac57611fab61351b565b5b0492506008810190505b6127108310611fdb576127108381611fd157611fd061351b565b5b0492506004810190505b60648310611ffe5760648381611ff457611ff361351b565b5b0492506002810190505b600a831061200d576001810190505b80915050919050565b60606000600167ffffffffffffffff81111561203557612034612841565b5b6040519080825280602002602001820160405280156120635781602001602082028036833780820191505090505b509050828160008151811061207b5761207a6133e2565b5b60200260200101818152505080915050919050565b505050505050565b505050505050565b6120bf8473ffffffffffffffffffffffffffffffffffffffff1661246e565b1561227f578373ffffffffffffffffffffffffffffffffffffffff1663f23a6e6187878686866040518663ffffffff1660e01b8152600401612105959493929190613abf565b602060405180830381600087803b15801561211f57600080fd5b505af192505050801561215057506040513d601f19601f8201168201806040525081019061214d9190613b2e565b60015b6121f65761215c613b68565b806308c379a014156121b95750612171613b8a565b8061217c57506121bb565b806040517f08c379a00000000000000000000000000000000000000000000000000000000081526004016121b091906127c7565b60405180910390fd5b505b6040517f08c379a00000000000000000000000000000000000000000000000000000000081526004016121ed90613c92565b60405180910390fd5b63f23a6e6160e01b7bffffffffffffffffffffffffffffffffffffffffffffffffffffffff1916817bffffffffffffffffffffffffffffffffffffffffffffffffffffffff19161461227d576040517f08c379a000000000000000000000000000000000000000000000000000000000815260040161227490613d24565b60405180910390fd5b505b505050505050565b6122a68473ffffffffffffffffffffffffffffffffffffffff1661246e565b15612466578373ffffffffffffffffffffffffffffffffffffffff1663bc197c8187878686866040518663ffffffff1660e01b81526004016122ec959493929190613d44565b602060405180830381600087803b15801561230657600080fd5b505af192505050801561233757506040513d601f19601f820116820180604052508101906123349190613b2e565b60015b6123dd57612343613b68565b806308c379a014156123a05750612358613b8a565b8061236357506123a2565b806040517f08c379a000000000000000000000000000000000000000000000000000000000815260040161239791906127c7565b60405180910390fd5b505b6040517f08c379a00000000000000000000000000000000000000000000000000000000081526004016123d490613c92565b60405180910390fd5b63bc197c8160e01b7bffffffffffffffffffffffffffffffffffffffffffffffffffffffff1916817bffffffffffffffffffffffffffffffffffffffffffffffffffffffff191614612464576040517f08c379a000000000000000000000000000000000000000000000000000000000815260040161245b90613d24565b60405180910390fd5b505b505050505050565b6000808273ffffffffffffffffffffffffffffffffffffffff163b119050919050565b82805461249d90613106565b90600052602060002090601f0160209004810192826124bf5760008555612506565b82601f106124d857805160ff1916838001178555612506565b82800160010185558215612506579182015b828111156125055782518255916020019190600101906124ea565b5b5090506125139190612517565b5090565b5b80821115612530576000816000905550600101612518565b5090565b6000604051905090565b600080fd5b600080fd5b600073ffffffffffffffffffffffffffffffffffffffff82169050919050565b600061257382612548565b9050919050565b61258381612568565b811461258e57600080fd5b50565b6000813590506125a08161257a565b92915050565b6000819050919050565b6125b9816125a6565b81146125c457600080fd5b50565b6000813590506125d6816125b0565b92915050565b600080604083850312156125f3576125f261253e565b5b600061260185828601612591565b9250506020612612858286016125c7565b9150509250929050565b612625816125a6565b82525050565b6000602082019050612640600083018461261c565b92915050565b60007fffffffff0000000000000000000000000000000000000000000000000000000082169050919050565b61267b81612646565b811461268657600080fd5b50565b60008135905061269881612672565b92915050565b6000602082840312156126b4576126b361253e565b5b60006126c284828501612689565b91505092915050565b60008115159050919050565b6126e0816126cb565b82525050565b60006020820190506126fb60008301846126d7565b92915050565b6000602082840312156127175761271661253e565b5b6000612725848285016125c7565b91505092915050565b600081519050919050565b600082825260208201905092915050565b60005b8381101561276857808201518184015260208101905061274d565b83811115612777576000848401525b50505050565b6000601f19601f8301169050919050565b60006127998261272e565b6127a38185612739565b93506127b381856020860161274a565b6127bc8161277d565b840191505092915050565b600060208201905081810360008301526127e1818461278e565b905092915050565b6000806000606084860312156128025761280161253e565b5b600061281086828701612591565b9350506020612821868287016125c7565b9250506040612832868287016125c7565b9150509250925092565b600080fd5b7f4e487b7100000000000000000000000000000000000000000000000000000000600052604160045260246000fd5b6128798261277d565b810181811067ffffffffffffffff8211171561289857612897612841565b5b80604052505050565b60006128ab612534565b90506128b78282612870565b919050565b600067ffffffffffffffff8211156128d7576128d6612841565b5b602082029050602081019050919050565b600080fd5b60006129006128fb846128bc565b6128a1565b90508083825260208201905060208402830185811115612923576129226128e8565b5b835b8181101561294c578061293888826125c7565b845260208401935050602081019050612925565b5050509392505050565b600082601f83011261296b5761296a61283c565b5b813561297b8482602086016128ed565b91505092915050565b600080fd5b600067ffffffffffffffff8211156129a4576129a3612841565b5b6129ad8261277d565b9050602081019050919050565b82818337600083830152505050565b60006129dc6129d784612989565b6128a1565b9050828152602081018484840111156129f8576129f7612984565b5b612a038482856129ba565b509392505050565b600082601f830112612a2057612a1f61283c565b5b8135612a308482602086016129c9565b91505092915050565b600080600080600060a08688031215612a5557612a5461253e565b5b6000612a6388828901612591565b9550506020612a7488828901612591565b945050604086013567ffffffffffffffff811115612a9557612a94612543565b5b612aa188828901612956565b935050606086013567ffffffffffffffff811115612ac257612ac1612543565b5b612ace88828901612956565b925050608086013567ffffffffffffffff811115612aef57612aee612543565b5b612afb88828901612a0b565b9150509295509295909350565b600067ffffffffffffffff821115612b2357612b22612841565b5b602082029050602081019050919050565b6000612b47612b4284612b08565b6128a1565b90508083825260208201905060208402830185811115612b6a57612b696128e8565b5b835b81811015612b935780612b7f8882612591565b845260208401935050602081019050612b6c565b5050509392505050565b600082601f830112612bb257612bb161283c565b5b8135612bc2848260208601612b34565b91505092915050565b60008060408385031215612be257612be161253e565b5b600083013567ffffffffffffffff811115612c0057612bff612543565b5b612c0c85828601612b9d565b925050602083013567ffffffffffffffff811115612c2d57612c2c612543565b5b612c3985828601612956565b9150509250929050565b600081519050919050565b600082825260208201905092915050565b6000819050602082019050919050565b612c78816125a6565b82525050565b6000612c8a8383612c6f565b60208301905092915050565b6000602082019050919050565b6000612cae82612c43565b612cb88185612c4e565b9350612cc383612c5f565b8060005b83811015612cf4578151612cdb8882612c7e565b9750612ce683612c96565b925050600181019050612cc7565b5085935050505092915050565b60006020820190508181036000830152612d1b8184612ca3565b905092915050565b600080600060608486031215612d3c57612d3b61253e565b5b6000612d4a86828701612591565b935050602084013567ffffffffffffffff811115612d6b57612d6a612543565b5b612d7786828701612956565b925050604084013567ffffffffffffffff811115612d9857612d97612543565b5b612da486828701612956565b9150509250925092565b600067ffffffffffffffff821115612dc957612dc8612841565b5b612dd28261277d565b9050602081019050919050565b6000612df2612ded84612dae565b6128a1565b905082815260208101848484011115612e0e57612e0d612984565b5b612e198482856129ba565b509392505050565b600082601f830112612e3657612e3561283c565b5b8135612e46848260208601612ddf565b91505092915050565b60008060408385031215612e6657612e6561253e565b5b6000612e74858286016125c7565b925050602083013567ffffffffffffffff811115612e9557612e94612543565b5b612ea185828601612e21565b9150509250929050565b612eb481612568565b82525050565b6000602082019050612ecf6000830184612eab565b92915050565b612ede816126cb565b8114612ee957600080fd5b50565b600081359050612efb81612ed5565b92915050565b60008060408385031215612f1857612f1761253e565b5b6000612f2685828601612591565b9250506020612f3785828601612eec565b9150509250929050565b60008060408385031215612f5857612f5761253e565b5b6000612f6685828601612591565b9250506020612f7785828601612591565b9150509250929050565b600080600080600060a08688031215612f9d57612f9c61253e565b5b6000612fab88828901612591565b9550506020612fbc88828901612591565b9450506040612fcd888289016125c7565b9350506060612fde888289016125c7565b925050608086013567ffffffffffffffff811115612fff57612ffe612543565b5b61300b88828901612a0b565b9150509295509295909350565b60006020828403121561302e5761302d61253e565b5b600061303c84828501612591565b91505092915050565b7f455243313135353a2061646472657373207a65726f206973206e6f742061207660008201527f616c6964206f776e657200000000000000000000000000000000000000000000602082015250565b60006130a1602a83612739565b91506130ac82613045565b604082019050919050565b600060208201905081810360008301526130d081613094565b9050919050565b7f4e487b7100000000000000000000000000000000000000000000000000000000600052602260045260246000fd5b6000600282049050600182168061311e57607f821691505b60208210811415613132576131316130d7565b5b50919050565b600081905092915050565b60008190508160005260206000209050919050565b6000815461316581613106565b61316f8186613138565b9450600182166000811461318a576001811461319b576131ce565b60ff198316865281860193506131ce565b6131a485613143565b60005b838110156131c6578154818901526001820191506020810190506131a7565b838801955050505b50505092915050565b60006131e28261272e565b6131ec8185613138565b93506131fc81856020860161274a565b80840191505092915050565b60006132148285613158565b915061322082846131d7565b91508190509392505050565b7f4d756c7469546f6b656e3a20596f7520617265206e6f7420746865206d696e7460008201527f6572000000000000000000000000000000000000000000000000000000000000602082015250565b6000613288602283612739565b91506132938261322c565b604082019050919050565b600060208201905081810360008301526132b78161327b565b9050919050565b7f455243313135353a2063616c6c6572206973206e6f7420746f6b656e206f776e60008201527f6572206f7220617070726f766564000000000000000000000000000000000000602082015250565b600061331a602e83612739565b9150613325826132be565b604082019050919050565b600060208201905081810360008301526133498161330d565b9050919050565b7f455243313135353a206163636f756e747320616e6420696473206c656e67746860008201527f206d69736d617463680000000000000000000000000000000000000000000000602082015250565b60006133ac602983612739565b91506133b782613350565b604082019050919050565b600060208201905081810360008301526133db8161339f565b9050919050565b7f4e487b7100000000000000000000000000000000000000000000000000000000600052603260045260246000fd5b7f4e487b7100000000000000000000000000000000000000000000000000000000600052601160045260246000fd5b600061344b826125a6565b91507fffffffffffffffffffffffffffffffffffffffffffffffffffffffffffffffff82141561347e5761347d613411565b5b600182019050919050565b7f4f776e61626c653a206e6577206f776e657220697320746865207a65726f206160008201527f6464726573730000000000000000000000000000000000000000000000000000602082015250565b60006134e5602683612739565b91506134f082613489565b604082019050919050565b60006020820190508181036000830152613514816134d8565b9050919050565b7f4e487b7100000000000000000000000000000000000000000000000000000000600052601260045260246000fd5b7f455243313135353a206d696e7420746f20746865207a65726f2061646472657360008201527f7300000000000000000000000000000000000000000000000000000000000000602082015250565b60006135a6602183612739565b91506135b18261354a565b604082019050919050565b600060208201905081810360008301526135d581613599565b9050919050565b60006135e7826125a6565b91506135f2836125a6565b9250827fffffffffffffffffffffffffffffffffffffffffffffffffffffffffffffffff0382111561362757613626613411565b5b828201905092915050565b6000604082019050613647600083018561261c565b613654602083018461261c565b9392505050565b7f455243313135353a2069647320616e6420616d6f756e7473206c656e6774682060008201527f6d69736d61746368000000000000000000000000000000000000000000000000602082015250565b60006136b7602883612739565b91506136c28261365b565b604082019050919050565b600060208201905081810360008301526136e6816136aa565b9050919050565b7f455243313135353a207472616e7366657220746f20746865207a65726f20616460008201527f6472657373000000000000000000000000000000000000000000000000000000602082015250565b6000613749602583612739565b9150613754826136ed565b604082019050919050565b600060208201905081810360008301526137788161373c565b9050919050565b7f455243313135353a20696e73756666696369656e742062616c616e636520666f60008201527f72207472616e7366657200000000000000000000000000000000000000000000602082015250565b60006137db602a83612739565b91506137e68261377f565b604082019050919050565b6000602082019050818103600083015261380a816137ce565b9050919050565b6000604082019050818103600083015261382b8185612ca3565b9050818103602083015261383f8184612ca3565b90509392505050565b7f455243313135353a206275726e2066726f6d20746865207a65726f206164647260008201527f6573730000000000000000000000000000000000000000000000000000000000602082015250565b60006138a4602383612739565b91506138af82613848565b604082019050919050565b600060208201905081810360008301526138d381613897565b9050919050565b7f455243313135353a206275726e20616d6f756e7420657863656564732062616c60008201527f616e636500000000000000000000000000000000000000000000000000000000602082015250565b6000613936602483612739565b9150613941826138da565b604082019050919050565b6000602082019050818103600083015261396581613929565b9050919050565b7f4f776e61626c653a2063616c6c6572206973206e6f7420746865206f776e6572600082015250565b60006139a2602083612739565b91506139ad8261396c565b602082019050919050565b600060208201905081810360008301526139d181613995565b9050919050565b7f455243313135353a2073657474696e6720617070726f76616c2073746174757360008201527f20666f722073656c660000000000000000000000000000000000000000000000602082015250565b6000613a34602983612739565b9150613a3f826139d8565b604082019050919050565b60006020820190508181036000830152613a6381613a27565b9050919050565b600081519050919050565b600082825260208201905092915050565b6000613a9182613a6a565b613a9b8185613a75565b9350613aab81856020860161274a565b613ab48161277d565b840191505092915050565b600060a082019050613ad46000830188612eab565b613ae16020830187612eab565b613aee604083018661261c565b613afb606083018561261c565b8181036080830152613b0d8184613a86565b90509695505050505050565b600081519050613b2881612672565b92915050565b600060208284031215613b4457613b4361253e565b5b6000613b5284828501613b19565b91505092915050565b60008160e01c9050919050565b600060033d1115613b875760046000803e613b84600051613b5b565b90505b90565b600060443d1015613b9a57613c1d565b613ba2612534565b60043d036004823e80513d602482011167ffffffffffffffff82111715613bca575050613c1d565b808201805167ffffffffffffffff811115613be85750505050613c1d565b80602083010160043d038501811115613c05575050505050613c1d565b613c1482602001850186612870565b82955050505050505b90565b7f455243313135353a207472616e7366657220746f206e6f6e2d4552433131353560008201527f526563656976657220696d706c656d656e746572000000000000000000000000602082015250565b6000613c7c603483612739565b9150613c8782613c20565b604082019050919050565b60006020820190508181036000830152613cab81613c6f565b9050919050565b7f455243313135353a204552433131353552656365697665722072656a6563746560008201527f6420746f6b656e73000000000000000000000000000000000000000000000000602082015250565b6000613d0e602883612739565b9150613d1982613cb2565b604082019050919050565b60006020820190508181036000830152613d3d81613d01565b9050919050565b600060a082019050613d596000830188612eab565b613d666020830187612eab565b8181036040830152613d788186612ca3565b90508181036060830152613d8c8185612ca3565b90508181036080830152613da08184613a86565b9050969550505050505056fea26469706673582212202281ccf87d066983528621ce27dd02e221ad0ae84005a3ddd8b3a0e7315cb20964736f6c63430008090033",
  "linkReferences": {},
  "deployedLinkReferences": {}
}