{
  "_format": "hh-sol-artifact-1",
  "contractName": "Forging",
  "sourceName": "contracts/Forging.sol",
  "abi": [
    {
      "inputs": [
        {
          "internalType": "contract MultiToken",
          "name": "_token",
          "type": "address"
        }
      ],
      "stateMutability": "nonpayable",
      "type": "constructor"
    },
    {
      "inputs": [
        {
          "internalType": "uint256[]",
          "name": "ids",
          "type": "uint256[]"
        },
        {
          "internalType": "uint256[]",
          "name": "amounts",
          "type": "uint256[]"
        }
      ],
      "name": "forgeTokens",
      "outputs": [],
      "stateMutability": "nonpayable",
      "type": "function"
    },
    {
      "inputs": [
        {
          "internalType": "uint256[]",
          "name": "_tokenIds",
          "type": "uint256[]"
        },
        {
          "internalType": "uint256[]",
          "name": "_amount",
          "type": "uint256[]"
        }
      ],
      "name": "mintBatchToken",
      "outputs": [],
      "stateMutability": "nonpayable",
      "type": "function"
    },
    {
      "inputs": [],
      "name": "timeMinted",
      "outputs": [
        {
          "internalType": "uint256",
          "name": "",
          "type": "uint256"
        }
      ],
      "stateMutability": "view",
      "type": "function"
    },
    {
      "inputs": [
        {
          "internalType": "uint256",
          "name": "_tokenIdGive",
          "type": "uint256"
        },
        {
          "internalType": "uint256",
          "name": "_amountToExchange",
          "type": "uint256"
        },
        {
          "internalType": "uint256",
          "name": "_tokenIdReceive",
          "type": "uint256"
        }
      ],
      "name": "tradeTokens",
      "outputs": [],
      "stateMutability": "nonpayable",
      "type": "function"
    }
  ],
  "bytecode": "0x60806040523480156200001157600080fd5b5060405162001167380380620011678339818101604052810190620000379190620000fc565b806000806101000a81548173ffffffffffffffffffffffffffffffffffffffff021916908373ffffffffffffffffffffffffffffffffffffffff160217905550506200012e565b600080fd5b600073ffffffffffffffffffffffffffffffffffffffff82169050919050565b6000620000b08262000083565b9050919050565b6000620000c482620000a3565b9050919050565b620000d681620000b7565b8114620000e257600080fd5b50565b600081519050620000f681620000cb565b92915050565b6000602082840312156200011557620001146200007e565b5b60006200012584828501620000e5565b91505092915050565b611029806200013e6000396000f3fe608060405234801561001057600080fd5b506004361061004c5760003560e01c80631022b560146100515780632d8dfa641461006d5780636abe475414610089578063d0d27d08146100a7575b600080fd5b61006b60048036038101906100669190610a39565b6100c3565b005b61008760048036038101906100829190610a39565b6103aa565b005b6100916105fa565b60405161009e9190610ac0565b60405180910390f35b6100c160048036038101906100bc9190610adb565b610600565b005b6000816000815181106100d9576100d8610b2e565b5b6020026020010151905060005b600183516100f49190610b8c565b81101561015857826001826101099190610bc0565b8151811061011a57610119610b2e565b5b602002602001015183828151811061013557610134610b2e565b5b60200260200101511461014b5761014a610c16565b5b80806001019150506100e6565b506003835110158015610186575060008360008151811061017c5761017b610b2e565b5b6020026020010151145b80156101ad57506001836001815181106101a3576101a2610b2e565b5b6020026020010151145b156101fb576002836002815181106101c8576101c7610b2e565b5b602002602001015114156101e8576101e36006828585610772565b6101f6565b6101f56003828585610772565b5b6103a5565b60008360008151811061021157610210610b2e565b5b6020026020010151148015610241575060018360018151811061023757610236610b2e565b5b6020026020010151145b15610258576102536003828585610772565b6103a4565b60018360008151811061026e5761026d610b2e565b5b602002602001015114801561029e575060028360018151811061029457610293610b2e565b5b6020026020010151145b156102b5576102b06004828585610772565b6103a3565b6000836000815181106102cb576102ca610b2e565b5b60200260200101511480156102fb57506002836001815181106102f1576102f0610b2e565b5b6020026020010151145b156103125761030d6005828585610772565b6103a2565b60008054906101000a900473ffffffffffffffffffffffffffffffffffffffff1673ffffffffffffffffffffffffffffffffffffffff16636b20c4543385856040518463ffffffff1660e01b815260040161036f93929190610d44565b600060405180830381600087803b15801561038957600080fd5b505af115801561039d573d6000803e3d6000fd5b505050505b5b5b5b505050565b42603c6001546103ba9190610bc0565b106103fa576040517f08c379a00000000000000000000000000000000000000000000000000000000081526004016103f190610de6565b60405180910390fd5b6000826000815181106104105761040f610b2e565b5b6020026020010151148015610440575060018260018151811061043657610435610b2e565b5b6020026020010151145b8015610467575060028260028151811061045d5761045c610b2e565b5b6020026020010151145b801561047557506003825111155b6104b4576040517f08c379a00000000000000000000000000000000000000000000000000000000081526004016104ab90610e78565b60405180910390fd5b6001816000815181106104ca576104c9610b2e565b5b60200260200101511480156104fa57506001816001815181106104f0576104ef610b2e565b5b6020026020010151145b8015610521575060018160028151811061051757610516610b2e565b5b6020026020010151145b610560576040517f08c379a000000000000000000000000000000000000000000000000000000000815260040161055790610f0a565b60405180910390fd5b60008054906101000a900473ffffffffffffffffffffffffffffffffffffffff1673ffffffffffffffffffffffffffffffffffffffff1663d81d0a153384846040518463ffffffff1660e01b81526004016105bd93929190610d44565b600060405180830381600087803b1580156105d757600080fd5b505af11580156105eb573d6000803e3d6000fd5b50505050426001819055505050565b60015481565b600383118061060f5750600281115b1561064f576040517f08c379a000000000000000000000000000000000000000000000000000000000815260040161064690610f9c565b60405180910390fd5b60008054906101000a900473ffffffffffffffffffffffffffffffffffffffff1673ffffffffffffffffffffffffffffffffffffffff1663f5298aca3385856040518463ffffffff1660e01b81526004016106ac93929190610fbc565b600060405180830381600087803b1580156106c657600080fd5b505af11580156106da573d6000803e3d6000fd5b5050505060008054906101000a900473ffffffffffffffffffffffffffffffffffffffff1673ffffffffffffffffffffffffffffffffffffffff1663156e29f63383856040518463ffffffff1660e01b815260040161073b93929190610fbc565b600060405180830381600087803b15801561075557600080fd5b505af1158015610769573d6000803e3d6000fd5b50505050505050565b60008054906101000a900473ffffffffffffffffffffffffffffffffffffffff1673ffffffffffffffffffffffffffffffffffffffff16636b20c4543384846040518463ffffffff1660e01b81526004016107cf93929190610d44565b600060405180830381600087803b1580156107e957600080fd5b505af11580156107fd573d6000803e3d6000fd5b5050505060008054906101000a900473ffffffffffffffffffffffffffffffffffffffff1673ffffffffffffffffffffffffffffffffffffffff1663156e29f63386866040518463ffffffff1660e01b815260040161085e93929190610fbc565b600060405180830381600087803b15801561087857600080fd5b505af115801561088c573d6000803e3d6000fd5b5050505050505050565b6000604051905090565b600080fd5b600080fd5b600080fd5b6000601f19601f8301169050919050565b7f4e487b7100000000000000000000000000000000000000000000000000000000600052604160045260246000fd5b6108f8826108af565b810181811067ffffffffffffffff82111715610917576109166108c0565b5b80604052505050565b600061092a610896565b905061093682826108ef565b919050565b600067ffffffffffffffff821115610956576109556108c0565b5b602082029050602081019050919050565b600080fd5b6000819050919050565b61097f8161096c565b811461098a57600080fd5b50565b60008135905061099c81610976565b92915050565b60006109b56109b08461093b565b610920565b905080838252602082019050602084028301858111156109d8576109d7610967565b5b835b81811015610a0157806109ed888261098d565b8452602084019350506020810190506109da565b5050509392505050565b600082601f830112610a2057610a1f6108aa565b5b8135610a308482602086016109a2565b91505092915050565b60008060408385031215610a5057610a4f6108a0565b5b600083013567ffffffffffffffff811115610a6e57610a6d6108a5565b5b610a7a85828601610a0b565b925050602083013567ffffffffffffffff811115610a9b57610a9a6108a5565b5b610aa785828601610a0b565b9150509250929050565b610aba8161096c565b82525050565b6000602082019050610ad56000830184610ab1565b92915050565b600080600060608486031215610af457610af36108a0565b5b6000610b028682870161098d565b9350506020610b138682870161098d565b9250506040610b248682870161098d565b9150509250925092565b7f4e487b7100000000000000000000000000000000000000000000000000000000600052603260045260246000fd5b7f4e487b7100000000000000000000000000000000000000000000000000000000600052601160045260246000fd5b6000610b978261096c565b9150610ba28361096c565b925082821015610bb557610bb4610b5d565b5b828203905092915050565b6000610bcb8261096c565b9150610bd68361096c565b9250827fffffffffffffffffffffffffffffffffffffffffffffffffffffffffffffffff03821115610c0b57610c0a610b5d565b5b828201905092915050565b7f4e487b7100000000000000000000000000000000000000000000000000000000600052600160045260246000fd5b600073ffffffffffffffffffffffffffffffffffffffff82169050919050565b6000610c7082610c45565b9050919050565b610c8081610c65565b82525050565b600081519050919050565b600082825260208201905092915050565b6000819050602082019050919050565b610cbb8161096c565b82525050565b6000610ccd8383610cb2565b60208301905092915050565b6000602082019050919050565b6000610cf182610c86565b610cfb8185610c91565b9350610d0683610ca2565b8060005b83811015610d37578151610d1e8882610cc1565b9750610d2983610cd9565b925050600181019050610d0a565b5085935050505092915050565b6000606082019050610d596000830186610c77565b8181036020830152610d6b8185610ce6565b90508181036040830152610d7f8184610ce6565b9050949350505050565b600082825260208201905092915050565b7f464f5247494e473a20506c6561736520776169742031206d696e7574652e0000600082015250565b6000610dd0601e83610d89565b9150610ddb82610d9a565b602082019050919050565b60006020820190508181036000830152610dff81610dc3565b9050919050565b7f464f5247494e473a20596f752063616e206d696e74206f6e6c7920746f6b656e60008201527f7320302c3120616e6420322e0000000000000000000000000000000000000000602082015250565b6000610e62602c83610d89565b9150610e6d82610e06565b604082019050919050565b60006020820190508181036000830152610e9181610e55565b9050919050565b7f464f5247494e473a204d6178207175616e74697479206973203120746f6b656e60008201527f206576657279206d696e742e0000000000000000000000000000000000000000602082015250565b6000610ef4602c83610d89565b9150610eff82610e98565b604082019050919050565b60006020820190508181036000830152610f2381610ee7565b9050919050565b7f464f5247494e473a20596f752063616e207472616465206f6e6c7920746f6b6560008201527f6e7320302c312c20616e6420322e000000000000000000000000000000000000602082015250565b6000610f86602e83610d89565b9150610f9182610f2a565b604082019050919050565b60006020820190508181036000830152610fb581610f79565b9050919050565b6000606082019050610fd16000830186610c77565b610fde6020830185610ab1565b610feb6040830184610ab1565b94935050505056fea26469706673582212206c0329ae3727dad7805ccf8a7e937d57bf904f5bdd9602cfa8606f177781a55064736f6c63430008090033",
  "linkReferences": {},
  "deployedLinkReferences": {}
}