{
  "_format": "hh-sol-artifact-1",
  "contractName": "Forging",
  "sourceName": "contracts/Forging.sol",
  "abi": [
    {
      "inputs": [
        {
          "internalType": "contract MultiToken",
          "name": "_token",
          "type": "address"
        }
      ],
      "stateMutability": "nonpayable",
      "type": "constructor"
    },
    {
      "inputs": [
        {
          "internalType": "uint256[]",
          "name": "ids",
          "type": "uint256[]"
        },
        {
          "internalType": "uint256[]",
          "name": "amounts",
          "type": "uint256[]"
        }
      ],
      "name": "forgeTokens",
      "outputs": [],
      "stateMutability": "nonpayable",
      "type": "function"
    },
    {
      "inputs": [
        {
          "internalType": "uint256[]",
          "name": "_tokenIds",
          "type": "uint256[]"
        },
        {
          "internalType": "uint256[]",
          "name": "_amount",
          "type": "uint256[]"
        }
      ],
      "name": "mintBachToken",
      "outputs": [],
      "stateMutability": "nonpayable",
      "type": "function"
    },
    {
      "inputs": [
        {
          "internalType": "uint256",
          "name": "_tokenIdGive",
          "type": "uint256"
        },
        {
          "internalType": "uint256",
          "name": "_amountToExchange",
          "type": "uint256"
        },
        {
          "internalType": "uint256",
          "name": "_tokenIdReceive",
          "type": "uint256"
        }
      ],
      "name": "tradeTokens",
      "outputs": [],
      "stateMutability": "nonpayable",
      "type": "function"
    }
  ],
  "bytecode": "0x60806040523480156200001157600080fd5b506040516200101e3803806200101e8339818101604052810190620000379190620000fc565b806000806101000a81548173ffffffffffffffffffffffffffffffffffffffff021916908373ffffffffffffffffffffffffffffffffffffffff160217905550506200012e565b600080fd5b600073ffffffffffffffffffffffffffffffffffffffff82169050919050565b6000620000b08262000083565b9050919050565b6000620000c482620000a3565b9050919050565b620000d681620000b7565b8114620000e257600080fd5b50565b600081519050620000f681620000cb565b92915050565b6000602082840312156200011557620001146200007e565b5b60006200012584828501620000e5565b91505092915050565b610ee0806200013e6000396000f3fe608060405234801561001057600080fd5b50600436106100415760003560e01c80631022b56014610046578063bc1b45be14610062578063d0d27d081461007e575b600080fd5b610060600480360381019061005b919061099d565b61009a565b005b61007c6004803603810190610077919061099d565b610346565b005b61009860048036038101906100939190610a15565b610564565b005b60005b600182516100ab9190610a97565b81101561010f57816001826100c09190610acb565b815181106100d1576100d0610b21565b5b60200260200101518282815181106100ec576100eb610b21565b5b60200260200101511461010257610101610b50565b5b808060010191505061009d565b506003825114156101475761014260068260008151811061013357610132610b21565b5b602002602001015184846106d6565b610342565b60008260008151811061015d5761015c610b21565b5b602002602001015114801561018d575060018260018151811061018357610182610b21565b5b6020026020010151145b156101bf576101ba6003826000815181106101ab576101aa610b21565b5b602002602001015184846106d6565b610341565b6001826000815181106101d5576101d4610b21565b5b602002602001015114801561020557506002826001815181106101fb576101fa610b21565b5b6020026020010151145b156102375761023260048260008151811061022357610222610b21565b5b602002602001015184846106d6565b610340565b60008260008151811061024d5761024c610b21565b5b602002602001015114801561027d575060028260018151811061027357610272610b21565b5b6020026020010151145b156102af576102aa60058260008151811061029b5761029a610b21565b5b602002602001015184846106d6565b61033f565b60008054906101000a900473ffffffffffffffffffffffffffffffffffffffff1673ffffffffffffffffffffffffffffffffffffffff16636b20c4543384846040518463ffffffff1660e01b815260040161030c93929190610c7e565b600060405180830381600087803b15801561032657600080fd5b505af115801561033a573d6000803e3d6000fd5b505050505b5b5b5b5050565b42603c600160003373ffffffffffffffffffffffffffffffffffffffff1673ffffffffffffffffffffffffffffffffffffffff168152602001908152602001600020546103939190610acb565b106103d3576040517f08c379a00000000000000000000000000000000000000000000000000000000081526004016103ca90610d20565b60405180910390fd5b6000826000815181106103e9576103e8610b21565b5b6020026020010151148015610419575060018260018151811061040f5761040e610b21565b5b6020026020010151145b8015610440575060028260028151811061043657610435610b21565b5b6020026020010151145b801561044e57506003825111155b61048d576040517f08c379a000000000000000000000000000000000000000000000000000000000815260040161048490610db2565b60405180910390fd5b60008054906101000a900473ffffffffffffffffffffffffffffffffffffffff1673ffffffffffffffffffffffffffffffffffffffff1663d81d0a153384846040518463ffffffff1660e01b81526004016104ea93929190610c7e565b600060405180830381600087803b15801561050457600080fd5b505af1158015610518573d6000803e3d6000fd5b5050505042600160003373ffffffffffffffffffffffffffffffffffffffff1673ffffffffffffffffffffffffffffffffffffffff168152602001908152602001600020819055505050565b60028311806105735750600281115b156105b3576040517f08c379a00000000000000000000000000000000000000000000000000000000081526004016105aa90610e44565b60405180910390fd5b60008054906101000a900473ffffffffffffffffffffffffffffffffffffffff1673ffffffffffffffffffffffffffffffffffffffff1663f5298aca3385856040518463ffffffff1660e01b815260040161061093929190610e73565b600060405180830381600087803b15801561062a57600080fd5b505af115801561063e573d6000803e3d6000fd5b5050505060008054906101000a900473ffffffffffffffffffffffffffffffffffffffff1673ffffffffffffffffffffffffffffffffffffffff1663156e29f63383856040518463ffffffff1660e01b815260040161069f93929190610e73565b600060405180830381600087803b1580156106b957600080fd5b505af11580156106cd573d6000803e3d6000fd5b50505050505050565b60008054906101000a900473ffffffffffffffffffffffffffffffffffffffff1673ffffffffffffffffffffffffffffffffffffffff16636b20c4543384846040518463ffffffff1660e01b815260040161073393929190610c7e565b600060405180830381600087803b15801561074d57600080fd5b505af1158015610761573d6000803e3d6000fd5b5050505060008054906101000a900473ffffffffffffffffffffffffffffffffffffffff1673ffffffffffffffffffffffffffffffffffffffff1663156e29f63386866040518463ffffffff1660e01b81526004016107c293929190610e73565b600060405180830381600087803b1580156107dc57600080fd5b505af11580156107f0573d6000803e3d6000fd5b5050505050505050565b6000604051905090565b600080fd5b600080fd5b600080fd5b6000601f19601f8301169050919050565b7f4e487b7100000000000000000000000000000000000000000000000000000000600052604160045260246000fd5b61085c82610813565b810181811067ffffffffffffffff8211171561087b5761087a610824565b5b80604052505050565b600061088e6107fa565b905061089a8282610853565b919050565b600067ffffffffffffffff8211156108ba576108b9610824565b5b602082029050602081019050919050565b600080fd5b6000819050919050565b6108e3816108d0565b81146108ee57600080fd5b50565b600081359050610900816108da565b92915050565b60006109196109148461089f565b610884565b9050808382526020820190506020840283018581111561093c5761093b6108cb565b5b835b81811015610965578061095188826108f1565b84526020840193505060208101905061093e565b5050509392505050565b600082601f8301126109845761098361080e565b5b8135610994848260208601610906565b91505092915050565b600080604083850312156109b4576109b3610804565b5b600083013567ffffffffffffffff8111156109d2576109d1610809565b5b6109de8582860161096f565b925050602083013567ffffffffffffffff8111156109ff576109fe610809565b5b610a0b8582860161096f565b9150509250929050565b600080600060608486031215610a2e57610a2d610804565b5b6000610a3c868287016108f1565b9350506020610a4d868287016108f1565b9250506040610a5e868287016108f1565b9150509250925092565b7f4e487b7100000000000000000000000000000000000000000000000000000000600052601160045260246000fd5b6000610aa2826108d0565b9150610aad836108d0565b925082821015610ac057610abf610a68565b5b828203905092915050565b6000610ad6826108d0565b9150610ae1836108d0565b9250827fffffffffffffffffffffffffffffffffffffffffffffffffffffffffffffffff03821115610b1657610b15610a68565b5b828201905092915050565b7f4e487b7100000000000000000000000000000000000000000000000000000000600052603260045260246000fd5b7f4e487b7100000000000000000000000000000000000000000000000000000000600052600160045260246000fd5b600073ffffffffffffffffffffffffffffffffffffffff82169050919050565b6000610baa82610b7f565b9050919050565b610bba81610b9f565b82525050565b600081519050919050565b600082825260208201905092915050565b6000819050602082019050919050565b610bf5816108d0565b82525050565b6000610c078383610bec565b60208301905092915050565b6000602082019050919050565b6000610c2b82610bc0565b610c358185610bcb565b9350610c4083610bdc565b8060005b83811015610c71578151610c588882610bfb565b9750610c6383610c13565b925050600181019050610c44565b5085935050505092915050565b6000606082019050610c936000830186610bb1565b8181036020830152610ca58185610c20565b90508181036040830152610cb98184610c20565b9050949350505050565b600082825260208201905092915050565b7f464f5247494e473a20506c6561736520776169742031206d696e7574652e0000600082015250565b6000610d0a601e83610cc3565b9150610d1582610cd4565b602082019050919050565b60006020820190508181036000830152610d3981610cfd565b9050919050565b7f464f5247494e473a20596f752063616e206d696e74206f6e6c7920746f6b656e60008201527f7320302c3120616e6420322e0000000000000000000000000000000000000000602082015250565b6000610d9c602c83610cc3565b9150610da782610d40565b604082019050919050565b60006020820190508181036000830152610dcb81610d8f565b9050919050565b7f464f5247494e473a20596f752063616e207472616465206f6e6c7920746f6b6560008201527f6e7320302c312c20616e6420322e000000000000000000000000000000000000602082015250565b6000610e2e602e83610cc3565b9150610e3982610dd2565b604082019050919050565b60006020820190508181036000830152610e5d81610e21565b9050919050565b610e6d816108d0565b82525050565b6000606082019050610e886000830186610bb1565b610e956020830185610e64565b610ea26040830184610e64565b94935050505056fea26469706673582212209a1baf0731ec7120434d2fb0ebff7fe6de4b060c3c447e9582dee6caa679385f64736f6c63430008090033",
  "linkReferences": {},
  "deployedLinkReferences": {}
}