{
  "_format": "hh-sol-artifact-1",
  "contractName": "MultiToken",
  "sourceName": "contracts/MultiToken.sol",
  "abi": [
    {
      "inputs": [],
      "stateMutability": "nonpayable",
      "type": "constructor"
    },
    {
      "anonymous": false,
      "inputs": [
        {
          "indexed": true,
          "internalType": "address",
          "name": "account",
          "type": "address"
        },
        {
          "indexed": true,
          "internalType": "address",
          "name": "operator",
          "type": "address"
        },
        {
          "indexed": false,
          "internalType": "bool",
          "name": "approved",
          "type": "bool"
        }
      ],
      "name": "ApprovalForAll",
      "type": "event"
    },
    {
      "anonymous": false,
      "inputs": [
        {
          "indexed": true,
          "internalType": "address",
          "name": "previousOwner",
          "type": "address"
        },
        {
          "indexed": true,
          "internalType": "address",
          "name": "newOwner",
          "type": "address"
        }
      ],
      "name": "OwnershipTransferred",
      "type": "event"
    },
    {
      "anonymous": false,
      "inputs": [
        {
          "indexed": true,
          "internalType": "address",
          "name": "operator",
          "type": "address"
        },
        {
          "indexed": true,
          "internalType": "address",
          "name": "from",
          "type": "address"
        },
        {
          "indexed": true,
          "internalType": "address",
          "name": "to",
          "type": "address"
        },
        {
          "indexed": false,
          "internalType": "uint256[]",
          "name": "ids",
          "type": "uint256[]"
        },
        {
          "indexed": false,
          "internalType": "uint256[]",
          "name": "values",
          "type": "uint256[]"
        }
      ],
      "name": "TransferBatch",
      "type": "event"
    },
    {
      "anonymous": false,
      "inputs": [
        {
          "indexed": true,
          "internalType": "address",
          "name": "operator",
          "type": "address"
        },
        {
          "indexed": true,
          "internalType": "address",
          "name": "from",
          "type": "address"
        },
        {
          "indexed": true,
          "internalType": "address",
          "name": "to",
          "type": "address"
        },
        {
          "indexed": false,
          "internalType": "uint256",
          "name": "id",
          "type": "uint256"
        },
        {
          "indexed": false,
          "internalType": "uint256",
          "name": "value",
          "type": "uint256"
        }
      ],
      "name": "TransferSingle",
      "type": "event"
    },
    {
      "anonymous": false,
      "inputs": [
        {
          "indexed": false,
          "internalType": "string",
          "name": "value",
          "type": "string"
        },
        {
          "indexed": true,
          "internalType": "uint256",
          "name": "id",
          "type": "uint256"
        }
      ],
      "name": "URI",
      "type": "event"
    },
    {
      "inputs": [
        {
          "internalType": "address",
          "name": "account",
          "type": "address"
        },
        {
          "internalType": "uint256",
          "name": "id",
          "type": "uint256"
        }
      ],
      "name": "balanceOf",
      "outputs": [
        {
          "internalType": "uint256",
          "name": "",
          "type": "uint256"
        }
      ],
      "stateMutability": "view",
      "type": "function"
    },
    {
      "inputs": [
        {
          "internalType": "address[]",
          "name": "accounts",
          "type": "address[]"
        },
        {
          "internalType": "uint256[]",
          "name": "ids",
          "type": "uint256[]"
        }
      ],
      "name": "balanceOfBatch",
      "outputs": [
        {
          "internalType": "uint256[]",
          "name": "",
          "type": "uint256[]"
        }
      ],
      "stateMutability": "view",
      "type": "function"
    },
    {
      "inputs": [
        {
          "internalType": "address",
          "name": "account",
          "type": "address"
        },
        {
          "internalType": "uint256",
          "name": "id",
          "type": "uint256"
        },
        {
          "internalType": "uint256",
          "name": "amount",
          "type": "uint256"
        }
      ],
      "name": "burn",
      "outputs": [],
      "stateMutability": "nonpayable",
      "type": "function"
    },
    {
      "inputs": [
        {
          "internalType": "address",
          "name": "account",
          "type": "address"
        },
        {
          "internalType": "uint256[]",
          "name": "ids",
          "type": "uint256[]"
        },
        {
          "internalType": "uint256[]",
          "name": "amounts",
          "type": "uint256[]"
        }
      ],
      "name": "burnBatch",
      "outputs": [],
      "stateMutability": "nonpayable",
      "type": "function"
    },
    {
      "inputs": [
        {
          "internalType": "address",
          "name": "account",
          "type": "address"
        },
        {
          "internalType": "address",
          "name": "operator",
          "type": "address"
        }
      ],
      "name": "isApprovedForAll",
      "outputs": [
        {
          "internalType": "bool",
          "name": "",
          "type": "bool"
        }
      ],
      "stateMutability": "view",
      "type": "function"
    },
    {
      "inputs": [
        {
          "internalType": "address",
          "name": "account",
          "type": "address"
        },
        {
          "internalType": "uint256",
          "name": "id",
          "type": "uint256"
        },
        {
          "internalType": "uint256",
          "name": "amount",
          "type": "uint256"
        }
      ],
      "name": "mint",
      "outputs": [],
      "stateMutability": "nonpayable",
      "type": "function"
    },
    {
      "inputs": [
        {
          "internalType": "address",
          "name": "account",
          "type": "address"
        },
        {
          "internalType": "uint256[]",
          "name": "ids",
          "type": "uint256[]"
        },
        {
          "internalType": "uint256[]",
          "name": "amounts",
          "type": "uint256[]"
        }
      ],
      "name": "mintBatch",
      "outputs": [],
      "stateMutability": "nonpayable",
      "type": "function"
    },
    {
      "inputs": [],
      "name": "minter",
      "outputs": [
        {
          "internalType": "address",
          "name": "",
          "type": "address"
        }
      ],
      "stateMutability": "view",
      "type": "function"
    },
    {
      "inputs": [],
      "name": "owner",
      "outputs": [
        {
          "internalType": "address",
          "name": "",
          "type": "address"
        }
      ],
      "stateMutability": "view",
      "type": "function"
    },
    {
      "inputs": [],
      "name": "renounceOwnership",
      "outputs": [],
      "stateMutability": "nonpayable",
      "type": "function"
    },
    {
      "inputs": [
        {
          "internalType": "address",
          "name": "from",
          "type": "address"
        },
        {
          "internalType": "address",
          "name": "to",
          "type": "address"
        },
        {
          "internalType": "uint256[]",
          "name": "ids",
          "type": "uint256[]"
        },
        {
          "internalType": "uint256[]",
          "name": "amounts",
          "type": "uint256[]"
        },
        {
          "internalType": "bytes",
          "name": "data",
          "type": "bytes"
        }
      ],
      "name": "safeBatchTransferFrom",
      "outputs": [],
      "stateMutability": "nonpayable",
      "type": "function"
    },
    {
      "inputs": [
        {
          "internalType": "address",
          "name": "from",
          "type": "address"
        },
        {
          "internalType": "address",
          "name": "to",
          "type": "address"
        },
        {
          "internalType": "uint256",
          "name": "id",
          "type": "uint256"
        },
        {
          "internalType": "uint256",
          "name": "amount",
          "type": "uint256"
        },
        {
          "internalType": "bytes",
          "name": "data",
          "type": "bytes"
        }
      ],
      "name": "safeTransferFrom",
      "outputs": [],
      "stateMutability": "nonpayable",
      "type": "function"
    },
    {
      "inputs": [
        {
          "internalType": "address",
          "name": "operator",
          "type": "address"
        },
        {
          "internalType": "bool",
          "name": "approved",
          "type": "bool"
        }
      ],
      "name": "setApprovalForAll",
      "outputs": [],
      "stateMutability": "nonpayable",
      "type": "function"
    },
    {
      "inputs": [
        {
          "internalType": "address",
          "name": "_minter",
          "type": "address"
        }
      ],
      "name": "setMinter",
      "outputs": [],
      "stateMutability": "nonpayable",
      "type": "function"
    },
    {
      "inputs": [
        {
          "internalType": "uint256",
          "name": "_tokenId",
          "type": "uint256"
        },
        {
          "internalType": "string",
          "name": "_newUri",
          "type": "string"
        }
      ],
      "name": "setURI",
      "outputs": [],
      "stateMutability": "nonpayable",
      "type": "function"
    },
    {
      "inputs": [
        {
          "internalType": "bytes4",
          "name": "interfaceId",
          "type": "bytes4"
        }
      ],
      "name": "supportsInterface",
      "outputs": [
        {
          "internalType": "bool",
          "name": "",
          "type": "bool"
        }
      ],
      "stateMutability": "view",
      "type": "function"
    },
    {
      "inputs": [
        {
          "internalType": "address",
          "name": "newOwner",
          "type": "address"
        }
      ],
      "name": "transferOwnership",
      "outputs": [],
      "stateMutability": "nonpayable",
      "type": "function"
    },
    {
      "inputs": [
        {
          "internalType": "uint256",
          "name": "_tokenId",
          "type": "uint256"
        }
      ],
      "name": "uri",
      "outputs": [
        {
          "internalType": "string",
          "name": "",
          "type": "string"
        }
      ],
      "stateMutability": "view",
      "type": "function"
    }
  ],
  "bytecode": "0x60806040523480156200001157600080fd5b506040518060200160405280600081525062000033816200005a60201b60201c565b5062000054620000486200007660201b60201c565b6200007e60201b60201c565b62000259565b80600290805190602001906200007292919062000144565b5050565b600033905090565b6000600360009054906101000a900473ffffffffffffffffffffffffffffffffffffffff16905081600360006101000a81548173ffffffffffffffffffffffffffffffffffffffff021916908373ffffffffffffffffffffffffffffffffffffffff1602179055508173ffffffffffffffffffffffffffffffffffffffff168173ffffffffffffffffffffffffffffffffffffffff167f8be0079c531659141344cd1fd0a4f28419497f9722a3daafe3b4186f6b6457e060405160405180910390a35050565b828054620001529062000223565b90600052602060002090601f016020900481019282620001765760008555620001c2565b82601f106200019157805160ff1916838001178555620001c2565b82800160010185558215620001c2579182015b82811115620001c1578251825591602001919060010190620001a4565b5b509050620001d19190620001d5565b5090565b5b80821115620001f0576000816000905550600101620001d6565b5090565b7f4e487b7100000000000000000000000000000000000000000000000000000000600052602260045260246000fd5b600060028204905060018216806200023c57607f821691505b60208210811415620002535762000252620001f4565b5b50919050565b613e3180620002696000396000f3fe608060405234801561001057600080fd5b50600436106101155760003560e01c8063862440e2116100a2578063e985e9c511610071578063e985e9c5146102c8578063f242432a146102f8578063f2fde38b14610314578063f5298aca14610330578063fca3b5aa1461034c57610115565b8063862440e2146102565780638da5cb5b14610272578063a22cb46514610290578063d81d0a15146102ac57610115565b8063156e29f6116100e9578063156e29f6146101c85780632eb2c2d6146101e45780634e1273f4146102005780636b20c45414610230578063715018a61461024c57610115565b8062fdd58e1461011a57806301ffc9a71461014a578063075461721461017a5780630e89341c14610198575b600080fd5b610134600480360381019061012f919061262b565b610368565b604051610141919061267a565b60405180910390f35b610164600480360381019061015f91906126ed565b610431565b6040516101719190612735565b60405180910390f35b610182610513565b60405161018f919061275f565b60405180910390f35b6101b260048036038101906101ad919061277a565b610539565b6040516101bf9190612840565b60405180910390f35b6101e260048036038101906101dd9190612862565b61057e565b005b6101fe60048036038101906101f99190612ab2565b61062e565b005b61021a60048036038101906102159190612c44565b6106cf565b6040516102279190612d7a565b60405180910390f35b61024a60048036038101906102459190612d9c565b6107e8565b005b610254610888565b005b610270600480360381019061026b9190612ec8565b61089c565b005b61027a6108d0565b604051610287919061275f565b60405180910390f35b6102aa60048036038101906102a59190612f50565b6108fa565b005b6102c660048036038101906102c19190612d9c565b610910565b005b6102e260048036038101906102dd9190612f90565b6109c0565b6040516102ef9190612735565b60405180910390f35b610312600480360381019061030d9190612fd0565b610a54565b005b61032e60048036038101906103299190613067565b610af5565b005b61034a60048036038101906103459190612862565b610b79565b005b61036660048036038101906103619190613067565b610c19565b005b60008073ffffffffffffffffffffffffffffffffffffffff168373ffffffffffffffffffffffffffffffffffffffff1614156103d9576040517f08c379a00000000000000000000000000000000000000000000000000000000081526004016103d090613106565b60405180910390fd5b60008083815260200190815260200160002060008473ffffffffffffffffffffffffffffffffffffffff1673ffffffffffffffffffffffffffffffffffffffff16815260200190815260200160002054905092915050565b60007fd9b67a26000000000000000000000000000000000000000000000000000000007bffffffffffffffffffffffffffffffffffffffffffffffffffffffff1916827bffffffffffffffffffffffffffffffffffffffffffffffffffffffff191614806104fc57507f0e89341c000000000000000000000000000000000000000000000000000000007bffffffffffffffffffffffffffffffffffffffffffffffffffffffff1916827bffffffffffffffffffffffffffffffffffffffffffffffffffffffff1916145b8061050c575061050b82610c65565b5b9050919050565b600560009054906101000a900473ffffffffffffffffffffffffffffffffffffffff1681565b60606004600083815260200190815260200160002061055783610ccf565b604051602001610568929190613257565b6040516020818303038152906040529050919050565b600560009054906101000a900473ffffffffffffffffffffffffffffffffffffffff1673ffffffffffffffffffffffffffffffffffffffff163373ffffffffffffffffffffffffffffffffffffffff161461060e576040517f08c379a0000000000000000000000000000000000000000000000000000000008152600401610605906132ed565b60405180910390fd5b61062983838360405180602001604052806000815250610da7565b505050565b610636610f58565b73ffffffffffffffffffffffffffffffffffffffff168573ffffffffffffffffffffffffffffffffffffffff16148061067c575061067b85610676610f58565b6109c0565b5b6106bb576040517f08c379a00000000000000000000000000000000000000000000000000000000081526004016106b29061337f565b60405180910390fd5b6106c88585858585610f60565b5050505050565b60608151835114610715576040517f08c379a000000000000000000000000000000000000000000000000000000000815260040161070c90613411565b60405180910390fd5b6000835167ffffffffffffffff811115610732576107316128ba565b5b6040519080825280602002602001820160405280156107605781602001602082028036833780820191505090505b50905060005b84518110156107dd576107ad85828151811061078557610784613431565b5b60200260200101518583815181106107a05761079f613431565b5b6020026020010151610368565b8282815181106107c0576107bf613431565b5b602002602001018181525050806107d69061348f565b9050610766565b508091505092915050565b600560009054906101000a900473ffffffffffffffffffffffffffffffffffffffff1673ffffffffffffffffffffffffffffffffffffffff163373ffffffffffffffffffffffffffffffffffffffff1614610878576040517f08c379a000000000000000000000000000000000000000000000000000000000815260040161086f906132ed565b60405180910390fd5b610883838383611282565b505050565b610890611551565b61089a60006115cf565b565b6108a4611551565b806004600084815260200190815260200160002090805190602001906108cb9291906124e0565b505050565b6000600360009054906101000a900473ffffffffffffffffffffffffffffffffffffffff16905090565b61090c610905610f58565b8383611695565b5050565b600560009054906101000a900473ffffffffffffffffffffffffffffffffffffffff1673ffffffffffffffffffffffffffffffffffffffff163373ffffffffffffffffffffffffffffffffffffffff16146109a0576040517f08c379a0000000000000000000000000000000000000000000000000000000008152600401610997906132ed565b60405180910390fd5b6109bb83838360405180602001604052806000815250611802565b505050565b6000600160008473ffffffffffffffffffffffffffffffffffffffff1673ffffffffffffffffffffffffffffffffffffffff16815260200190815260200160002060008373ffffffffffffffffffffffffffffffffffffffff1673ffffffffffffffffffffffffffffffffffffffff16815260200190815260200160002060009054906101000a900460ff16905092915050565b610a5c610f58565b73ffffffffffffffffffffffffffffffffffffffff168573ffffffffffffffffffffffffffffffffffffffff161480610aa25750610aa185610a9c610f58565b6109c0565b5b610ae1576040517f08c379a0000000000000000000000000000000000000000000000000000000008152600401610ad89061337f565b60405180910390fd5b610aee8585858585611a2f565b5050505050565b610afd611551565b600073ffffffffffffffffffffffffffffffffffffffff168173ffffffffffffffffffffffffffffffffffffffff161415610b6d576040517f08c379a0000000000000000000000000000000000000000000000000000000008152600401610b649061354a565b60405180910390fd5b610b76816115cf565b50565b600560009054906101000a900473ffffffffffffffffffffffffffffffffffffffff1673ffffffffffffffffffffffffffffffffffffffff163373ffffffffffffffffffffffffffffffffffffffff1614610c09576040517f08c379a0000000000000000000000000000000000000000000000000000000008152600401610c00906132ed565b60405180910390fd5b610c14838383611ccb565b505050565b610c21611551565b80600560006101000a81548173ffffffffffffffffffffffffffffffffffffffff021916908373ffffffffffffffffffffffffffffffffffffffff16021790555050565b60007f01ffc9a7000000000000000000000000000000000000000000000000000000007bffffffffffffffffffffffffffffffffffffffffffffffffffffffff1916827bffffffffffffffffffffffffffffffffffffffffffffffffffffffff1916149050919050565b606060006001610cde84611f12565b01905060008167ffffffffffffffff811115610cfd57610cfc6128ba565b5b6040519080825280601f01601f191660200182016040528015610d2f5781602001600182028036833780820191505090505b509050600082602001820190505b600115610d9c578080600190039150507f3031323334353637383961626364656600000000000000000000000000000000600a86061a8153600a8581610d8657610d8561356a565b5b0494506000851415610d9757610d9c565b610d3d565b819350505050919050565b600073ffffffffffffffffffffffffffffffffffffffff168473ffffffffffffffffffffffffffffffffffffffff161415610e17576040517f08c379a0000000000000000000000000000000000000000000000000000000008152600401610e0e9061360b565b60405180910390fd5b6000610e21610f58565b90506000610e2e85612065565b90506000610e3b85612065565b9050610e4c836000898585896120df565b8460008088815260200190815260200160002060008973ffffffffffffffffffffffffffffffffffffffff1673ffffffffffffffffffffffffffffffffffffffff1681526020019081526020016000206000828254610eab919061362b565b925050819055508673ffffffffffffffffffffffffffffffffffffffff16600073ffffffffffffffffffffffffffffffffffffffff168473ffffffffffffffffffffffffffffffffffffffff167fc3d58168c5ae7397731d063d5bbf3d657854427343f4c083240f7aacaa2d0f628989604051610f29929190613681565b60405180910390a4610f40836000898585896120e7565b610f4f836000898989896120ef565b50505050505050565b600033905090565b8151835114610fa4576040517f08c379a0000000000000000000000000000000000000000000000000000000008152600401610f9b9061371c565b60405180910390fd5b600073ffffffffffffffffffffffffffffffffffffffff168473ffffffffffffffffffffffffffffffffffffffff161415611014576040517f08c379a000000000000000000000000000000000000000000000000000000000815260040161100b906137ae565b60405180910390fd5b600061101e610f58565b905061102e8187878787876120df565b60005b84518110156111df57600085828151811061104f5761104e613431565b5b60200260200101519050600085838151811061106e5761106d613431565b5b60200260200101519050600080600084815260200190815260200160002060008b73ffffffffffffffffffffffffffffffffffffffff1673ffffffffffffffffffffffffffffffffffffffff1681526020019081526020016000205490508181101561110f576040517f08c379a000000000000000000000000000000000000000000000000000000000815260040161110690613840565b60405180910390fd5b81810360008085815260200190815260200160002060008c73ffffffffffffffffffffffffffffffffffffffff1673ffffffffffffffffffffffffffffffffffffffff168152602001908152602001600020819055508160008085815260200190815260200160002060008b73ffffffffffffffffffffffffffffffffffffffff1673ffffffffffffffffffffffffffffffffffffffff16815260200190815260200160002060008282546111c4919061362b565b92505081905550505050806111d89061348f565b9050611031565b508473ffffffffffffffffffffffffffffffffffffffff168673ffffffffffffffffffffffffffffffffffffffff168273ffffffffffffffffffffffffffffffffffffffff167f4a39dc06d4c0dbc64b70af90fd698a233a518aa5d07e595d983b8c0526c8f7fb8787604051611256929190613860565b60405180910390a461126c8187878787876120e7565b61127a8187878787876122d6565b505050505050565b600073ffffffffffffffffffffffffffffffffffffffff168373ffffffffffffffffffffffffffffffffffffffff1614156112f2576040517f08c379a00000000000000000000000000000000000000000000000000000000081526004016112e990613909565b60405180910390fd5b8051825114611336576040517f08c379a000000000000000000000000000000000000000000000000000000000815260040161132d9061371c565b60405180910390fd5b6000611340610f58565b9050611360818560008686604051806020016040528060008152506120df565b60005b83518110156114ad57600084828151811061138157611380613431565b5b6020026020010151905060008483815181106113a05761139f613431565b5b60200260200101519050600080600084815260200190815260200160002060008973ffffffffffffffffffffffffffffffffffffffff1673ffffffffffffffffffffffffffffffffffffffff16815260200190815260200160002054905081811015611441576040517f08c379a00000000000000000000000000000000000000000000000000000000081526004016114389061399b565b60405180910390fd5b81810360008085815260200190815260200160002060008a73ffffffffffffffffffffffffffffffffffffffff1673ffffffffffffffffffffffffffffffffffffffff1681526020019081526020016000208190555050505080806114a59061348f565b915050611363565b50600073ffffffffffffffffffffffffffffffffffffffff168473ffffffffffffffffffffffffffffffffffffffff168273ffffffffffffffffffffffffffffffffffffffff167f4a39dc06d4c0dbc64b70af90fd698a233a518aa5d07e595d983b8c0526c8f7fb8686604051611525929190613860565b60405180910390a461154b818560008686604051806020016040528060008152506120e7565b50505050565b611559610f58565b73ffffffffffffffffffffffffffffffffffffffff166115776108d0565b73ffffffffffffffffffffffffffffffffffffffff16146115cd576040517f08c379a00000000000000000000000000000000000000000000000000000000081526004016115c490613a07565b60405180910390fd5b565b6000600360009054906101000a900473ffffffffffffffffffffffffffffffffffffffff16905081600360006101000a81548173ffffffffffffffffffffffffffffffffffffffff021916908373ffffffffffffffffffffffffffffffffffffffff1602179055508173ffffffffffffffffffffffffffffffffffffffff168173ffffffffffffffffffffffffffffffffffffffff167f8be0079c531659141344cd1fd0a4f28419497f9722a3daafe3b4186f6b6457e060405160405180910390a35050565b8173ffffffffffffffffffffffffffffffffffffffff168373ffffffffffffffffffffffffffffffffffffffff161415611704576040517f08c379a00000000000000000000000000000000000000000000000000000000081526004016116fb90613a99565b60405180910390fd5b80600160008573ffffffffffffffffffffffffffffffffffffffff1673ffffffffffffffffffffffffffffffffffffffff16815260200190815260200160002060008473ffffffffffffffffffffffffffffffffffffffff1673ffffffffffffffffffffffffffffffffffffffff16815260200190815260200160002060006101000a81548160ff0219169083151502179055508173ffffffffffffffffffffffffffffffffffffffff168373ffffffffffffffffffffffffffffffffffffffff167f17307eab39ab6107e8899845ad3d59bd9653f200f220920489ca2b5937696c31836040516117f59190612735565b60405180910390a3505050565b600073ffffffffffffffffffffffffffffffffffffffff168473ffffffffffffffffffffffffffffffffffffffff161415611872576040517f08c379a00000000000000000000000000000000000000000000000000000000081526004016118699061360b565b60405180910390fd5b81518351146118b6576040517f08c379a00000000000000000000000000000000000000000000000000000000081526004016118ad9061371c565b60405180910390fd5b60006118c0610f58565b90506118d1816000878787876120df565b60005b845181101561198a578381815181106118f0576118ef613431565b5b602002602001015160008087848151811061190e5761190d613431565b5b6020026020010151815260200190815260200160002060008873ffffffffffffffffffffffffffffffffffffffff1673ffffffffffffffffffffffffffffffffffffffff1681526020019081526020016000206000828254611970919061362b565b9250508190555080806119829061348f565b9150506118d4565b508473ffffffffffffffffffffffffffffffffffffffff16600073ffffffffffffffffffffffffffffffffffffffff168273ffffffffffffffffffffffffffffffffffffffff167f4a39dc06d4c0dbc64b70af90fd698a233a518aa5d07e595d983b8c0526c8f7fb8787604051611a02929190613860565b60405180910390a4611a19816000878787876120e7565b611a28816000878787876122d6565b5050505050565b600073ffffffffffffffffffffffffffffffffffffffff168473ffffffffffffffffffffffffffffffffffffffff161415611a9f576040517f08c379a0000000000000000000000000000000000000000000000000000000008152600401611a96906137ae565b60405180910390fd5b6000611aa9610f58565b90506000611ab685612065565b90506000611ac385612065565b9050611ad38389898585896120df565b600080600088815260200190815260200160002060008a73ffffffffffffffffffffffffffffffffffffffff1673ffffffffffffffffffffffffffffffffffffffff16815260200190815260200160002054905085811015611b6a576040517f08c379a0000000000000000000000000000000000000000000000000000000008152600401611b6190613840565b60405180910390fd5b85810360008089815260200190815260200160002060008b73ffffffffffffffffffffffffffffffffffffffff1673ffffffffffffffffffffffffffffffffffffffff168152602001908152602001600020819055508560008089815260200190815260200160002060008a73ffffffffffffffffffffffffffffffffffffffff1673ffffffffffffffffffffffffffffffffffffffff1681526020019081526020016000206000828254611c1f919061362b565b925050819055508773ffffffffffffffffffffffffffffffffffffffff168973ffffffffffffffffffffffffffffffffffffffff168573ffffffffffffffffffffffffffffffffffffffff167fc3d58168c5ae7397731d063d5bbf3d657854427343f4c083240f7aacaa2d0f628a8a604051611c9c929190613681565b60405180910390a4611cb2848a8a86868a6120e7565b611cc0848a8a8a8a8a6120ef565b505050505050505050565b600073ffffffffffffffffffffffffffffffffffffffff168373ffffffffffffffffffffffffffffffffffffffff161415611d3b576040517f08c379a0000000000000000000000000000000000000000000000000000000008152600401611d3290613909565b60405180910390fd5b6000611d45610f58565b90506000611d5284612065565b90506000611d5f84612065565b9050611d7f838760008585604051806020016040528060008152506120df565b600080600087815260200190815260200160002060008873ffffffffffffffffffffffffffffffffffffffff1673ffffffffffffffffffffffffffffffffffffffff16815260200190815260200160002054905084811015611e16576040517f08c379a0000000000000000000000000000000000000000000000000000000008152600401611e0d9061399b565b60405180910390fd5b84810360008088815260200190815260200160002060008973ffffffffffffffffffffffffffffffffffffffff1673ffffffffffffffffffffffffffffffffffffffff16815260200190815260200160002081905550600073ffffffffffffffffffffffffffffffffffffffff168773ffffffffffffffffffffffffffffffffffffffff168573ffffffffffffffffffffffffffffffffffffffff167fc3d58168c5ae7397731d063d5bbf3d657854427343f4c083240f7aacaa2d0f628989604051611ee3929190613681565b60405180910390a4611f09848860008686604051806020016040528060008152506120e7565b50505050505050565b600080600090507a184f03e93ff9f4daa797ed6e38ed64bf6a1f0100000000000000008310611f70577a184f03e93ff9f4daa797ed6e38ed64bf6a1f0100000000000000008381611f6657611f6561356a565b5b0492506040810190505b6d04ee2d6d415b85acef81000000008310611fad576d04ee2d6d415b85acef81000000008381611fa357611fa261356a565b5b0492506020810190505b662386f26fc100008310611fdc57662386f26fc100008381611fd257611fd161356a565b5b0492506010810190505b6305f5e1008310612005576305f5e1008381611ffb57611ffa61356a565b5b0492506008810190505b612710831061202a5761271083816120205761201f61356a565b5b0492506004810190505b6064831061204d57606483816120435761204261356a565b5b0492506002810190505b600a831061205c576001810190505b80915050919050565b60606000600167ffffffffffffffff811115612084576120836128ba565b5b6040519080825280602002602001820160405280156120b25781602001602082028036833780820191505090505b50905082816000815181106120ca576120c9613431565b5b60200260200101818152505080915050919050565b505050505050565b505050505050565b61210e8473ffffffffffffffffffffffffffffffffffffffff166124bd565b156122ce578373ffffffffffffffffffffffffffffffffffffffff1663f23a6e6187878686866040518663ffffffff1660e01b8152600401612154959493929190613b0e565b602060405180830381600087803b15801561216e57600080fd5b505af192505050801561219f57506040513d601f19601f8201168201806040525081019061219c9190613b7d565b60015b612245576121ab613bb7565b806308c379a0141561220857506121c0613bd9565b806121cb575061220a565b806040517f08c379a00000000000000000000000000000000000000000000000000000000081526004016121ff9190612840565b60405180910390fd5b505b6040517f08c379a000000000000000000000000000000000000000000000000000000000815260040161223c90613ce1565b60405180910390fd5b63f23a6e6160e01b7bffffffffffffffffffffffffffffffffffffffffffffffffffffffff1916817bffffffffffffffffffffffffffffffffffffffffffffffffffffffff1916146122cc576040517f08c379a00000000000000000000000000000000000000000000000000000000081526004016122c390613d73565b60405180910390fd5b505b505050505050565b6122f58473ffffffffffffffffffffffffffffffffffffffff166124bd565b156124b5578373ffffffffffffffffffffffffffffffffffffffff1663bc197c8187878686866040518663ffffffff1660e01b815260040161233b959493929190613d93565b602060405180830381600087803b15801561235557600080fd5b505af192505050801561238657506040513d601f19601f820116820180604052508101906123839190613b7d565b60015b61242c57612392613bb7565b806308c379a014156123ef57506123a7613bd9565b806123b257506123f1565b806040517f08c379a00000000000000000000000000000000000000000000000000000000081526004016123e69190612840565b60405180910390fd5b505b6040517f08c379a000000000000000000000000000000000000000000000000000000000815260040161242390613ce1565b60405180910390fd5b63bc197c8160e01b7bffffffffffffffffffffffffffffffffffffffffffffffffffffffff1916817bffffffffffffffffffffffffffffffffffffffffffffffffffffffff1916146124b3576040517f08c379a00000000000000000000000000000000000000000000000000000000081526004016124aa90613d73565b60405180910390fd5b505b505050505050565b6000808273ffffffffffffffffffffffffffffffffffffffff163b119050919050565b8280546124ec90613155565b90600052602060002090601f01602090048101928261250e5760008555612555565b82601f1061252757805160ff1916838001178555612555565b82800160010185558215612555579182015b82811115612554578251825591602001919060010190612539565b5b5090506125629190612566565b5090565b5b8082111561257f576000816000905550600101612567565b5090565b6000604051905090565b600080fd5b600080fd5b600073ffffffffffffffffffffffffffffffffffffffff82169050919050565b60006125c282612597565b9050919050565b6125d2816125b7565b81146125dd57600080fd5b50565b6000813590506125ef816125c9565b92915050565b6000819050919050565b612608816125f5565b811461261357600080fd5b50565b600081359050612625816125ff565b92915050565b600080604083850312156126425761264161258d565b5b6000612650858286016125e0565b925050602061266185828601612616565b9150509250929050565b612674816125f5565b82525050565b600060208201905061268f600083018461266b565b92915050565b60007fffffffff0000000000000000000000000000000000000000000000000000000082169050919050565b6126ca81612695565b81146126d557600080fd5b50565b6000813590506126e7816126c1565b92915050565b6000602082840312156127035761270261258d565b5b6000612711848285016126d8565b91505092915050565b60008115159050919050565b61272f8161271a565b82525050565b600060208201905061274a6000830184612726565b92915050565b612759816125b7565b82525050565b60006020820190506127746000830184612750565b92915050565b6000602082840312156127905761278f61258d565b5b600061279e84828501612616565b91505092915050565b600081519050919050565b600082825260208201905092915050565b60005b838110156127e15780820151818401526020810190506127c6565b838111156127f0576000848401525b50505050565b6000601f19601f8301169050919050565b6000612812826127a7565b61281c81856127b2565b935061282c8185602086016127c3565b612835816127f6565b840191505092915050565b6000602082019050818103600083015261285a8184612807565b905092915050565b60008060006060848603121561287b5761287a61258d565b5b6000612889868287016125e0565b935050602061289a86828701612616565b92505060406128ab86828701612616565b9150509250925092565b600080fd5b7f4e487b7100000000000000000000000000000000000000000000000000000000600052604160045260246000fd5b6128f2826127f6565b810181811067ffffffffffffffff82111715612911576129106128ba565b5b80604052505050565b6000612924612583565b905061293082826128e9565b919050565b600067ffffffffffffffff8211156129505761294f6128ba565b5b602082029050602081019050919050565b600080fd5b600061297961297484612935565b61291a565b9050808382526020820190506020840283018581111561299c5761299b612961565b5b835b818110156129c557806129b18882612616565b84526020840193505060208101905061299e565b5050509392505050565b600082601f8301126129e4576129e36128b5565b5b81356129f4848260208601612966565b91505092915050565b600080fd5b600067ffffffffffffffff821115612a1d57612a1c6128ba565b5b612a26826127f6565b9050602081019050919050565b82818337600083830152505050565b6000612a55612a5084612a02565b61291a565b905082815260208101848484011115612a7157612a706129fd565b5b612a7c848285612a33565b509392505050565b600082601f830112612a9957612a986128b5565b5b8135612aa9848260208601612a42565b91505092915050565b600080600080600060a08688031215612ace57612acd61258d565b5b6000612adc888289016125e0565b9550506020612aed888289016125e0565b945050604086013567ffffffffffffffff811115612b0e57612b0d612592565b5b612b1a888289016129cf565b935050606086013567ffffffffffffffff811115612b3b57612b3a612592565b5b612b47888289016129cf565b925050608086013567ffffffffffffffff811115612b6857612b67612592565b5b612b7488828901612a84565b9150509295509295909350565b600067ffffffffffffffff821115612b9c57612b9b6128ba565b5b602082029050602081019050919050565b6000612bc0612bbb84612b81565b61291a565b90508083825260208201905060208402830185811115612be357612be2612961565b5b835b81811015612c0c5780612bf888826125e0565b845260208401935050602081019050612be5565b5050509392505050565b600082601f830112612c2b57612c2a6128b5565b5b8135612c3b848260208601612bad565b91505092915050565b60008060408385031215612c5b57612c5a61258d565b5b600083013567ffffffffffffffff811115612c7957612c78612592565b5b612c8585828601612c16565b925050602083013567ffffffffffffffff811115612ca657612ca5612592565b5b612cb2858286016129cf565b9150509250929050565b600081519050919050565b600082825260208201905092915050565b6000819050602082019050919050565b612cf1816125f5565b82525050565b6000612d038383612ce8565b60208301905092915050565b6000602082019050919050565b6000612d2782612cbc565b612d318185612cc7565b9350612d3c83612cd8565b8060005b83811015612d6d578151612d548882612cf7565b9750612d5f83612d0f565b925050600181019050612d40565b5085935050505092915050565b60006020820190508181036000830152612d948184612d1c565b905092915050565b600080600060608486031215612db557612db461258d565b5b6000612dc3868287016125e0565b935050602084013567ffffffffffffffff811115612de457612de3612592565b5b612df0868287016129cf565b925050604084013567ffffffffffffffff811115612e1157612e10612592565b5b612e1d868287016129cf565b9150509250925092565b600067ffffffffffffffff821115612e4257612e416128ba565b5b612e4b826127f6565b9050602081019050919050565b6000612e6b612e6684612e27565b61291a565b905082815260208101848484011115612e8757612e866129fd565b5b612e92848285612a33565b509392505050565b600082601f830112612eaf57612eae6128b5565b5b8135612ebf848260208601612e58565b91505092915050565b60008060408385031215612edf57612ede61258d565b5b6000612eed85828601612616565b925050602083013567ffffffffffffffff811115612f0e57612f0d612592565b5b612f1a85828601612e9a565b9150509250929050565b612f2d8161271a565b8114612f3857600080fd5b50565b600081359050612f4a81612f24565b92915050565b60008060408385031215612f6757612f6661258d565b5b6000612f75858286016125e0565b9250506020612f8685828601612f3b565b9150509250929050565b60008060408385031215612fa757612fa661258d565b5b6000612fb5858286016125e0565b9250506020612fc6858286016125e0565b9150509250929050565b600080600080600060a08688031215612fec57612feb61258d565b5b6000612ffa888289016125e0565b955050602061300b888289016125e0565b945050604061301c88828901612616565b935050606061302d88828901612616565b925050608086013567ffffffffffffffff81111561304e5761304d612592565b5b61305a88828901612a84565b9150509295509295909350565b60006020828403121561307d5761307c61258d565b5b600061308b848285016125e0565b91505092915050565b7f455243313135353a2061646472657373207a65726f206973206e6f742061207660008201527f616c6964206f776e657200000000000000000000000000000000000000000000602082015250565b60006130f0602a836127b2565b91506130fb82613094565b604082019050919050565b6000602082019050818103600083015261311f816130e3565b9050919050565b7f4e487b7100000000000000000000000000000000000000000000000000000000600052602260045260246000fd5b6000600282049050600182168061316d57607f821691505b6020821081141561318157613180613126565b5b50919050565b600081905092915050565b60008190508160005260206000209050919050565b600081546131b481613155565b6131be8186613187565b945060018216600081146131d957600181146131ea5761321d565b60ff1983168652818601935061321d565b6131f385613192565b60005b83811015613215578154818901526001820191506020810190506131f6565b838801955050505b50505092915050565b6000613231826127a7565b61323b8185613187565b935061324b8185602086016127c3565b80840191505092915050565b600061326382856131a7565b915061326f8284613226565b91508190509392505050565b7f4d756c7469546f6b656e3a20596f7520617265206e6f7420746865206d696e7460008201527f6572000000000000000000000000000000000000000000000000000000000000602082015250565b60006132d76022836127b2565b91506132e28261327b565b604082019050919050565b60006020820190508181036000830152613306816132ca565b9050919050565b7f455243313135353a2063616c6c6572206973206e6f7420746f6b656e206f776e60008201527f6572206f7220617070726f766564000000000000000000000000000000000000602082015250565b6000613369602e836127b2565b91506133748261330d565b604082019050919050565b600060208201905081810360008301526133988161335c565b9050919050565b7f455243313135353a206163636f756e747320616e6420696473206c656e67746860008201527f206d69736d617463680000000000000000000000000000000000000000000000602082015250565b60006133fb6029836127b2565b91506134068261339f565b604082019050919050565b6000602082019050818103600083015261342a816133ee565b9050919050565b7f4e487b7100000000000000000000000000000000000000000000000000000000600052603260045260246000fd5b7f4e487b7100000000000000000000000000000000000000000000000000000000600052601160045260246000fd5b600061349a826125f5565b91507fffffffffffffffffffffffffffffffffffffffffffffffffffffffffffffffff8214156134cd576134cc613460565b5b600182019050919050565b7f4f776e61626c653a206e6577206f776e657220697320746865207a65726f206160008201527f6464726573730000000000000000000000000000000000000000000000000000602082015250565b60006135346026836127b2565b915061353f826134d8565b604082019050919050565b6000602082019050818103600083015261356381613527565b9050919050565b7f4e487b7100000000000000000000000000000000000000000000000000000000600052601260045260246000fd5b7f455243313135353a206d696e7420746f20746865207a65726f2061646472657360008201527f7300000000000000000000000000000000000000000000000000000000000000602082015250565b60006135f56021836127b2565b915061360082613599565b604082019050919050565b60006020820190508181036000830152613624816135e8565b9050919050565b6000613636826125f5565b9150613641836125f5565b9250827fffffffffffffffffffffffffffffffffffffffffffffffffffffffffffffffff0382111561367657613675613460565b5b828201905092915050565b6000604082019050613696600083018561266b565b6136a3602083018461266b565b9392505050565b7f455243313135353a2069647320616e6420616d6f756e7473206c656e6774682060008201527f6d69736d61746368000000000000000000000000000000000000000000000000602082015250565b60006137066028836127b2565b9150613711826136aa565b604082019050919050565b60006020820190508181036000830152613735816136f9565b9050919050565b7f455243313135353a207472616e7366657220746f20746865207a65726f20616460008201527f6472657373000000000000000000000000000000000000000000000000000000602082015250565b60006137986025836127b2565b91506137a38261373c565b604082019050919050565b600060208201905081810360008301526137c78161378b565b9050919050565b7f455243313135353a20696e73756666696369656e742062616c616e636520666f60008201527f72207472616e7366657200000000000000000000000000000000000000000000602082015250565b600061382a602a836127b2565b9150613835826137ce565b604082019050919050565b600060208201905081810360008301526138598161381d565b9050919050565b6000604082019050818103600083015261387a8185612d1c565b9050818103602083015261388e8184612d1c565b90509392505050565b7f455243313135353a206275726e2066726f6d20746865207a65726f206164647260008201527f6573730000000000000000000000000000000000000000000000000000000000602082015250565b60006138f36023836127b2565b91506138fe82613897565b604082019050919050565b60006020820190508181036000830152613922816138e6565b9050919050565b7f455243313135353a206275726e20616d6f756e7420657863656564732062616c60008201527f616e636500000000000000000000000000000000000000000000000000000000602082015250565b60006139856024836127b2565b915061399082613929565b604082019050919050565b600060208201905081810360008301526139b481613978565b9050919050565b7f4f776e61626c653a2063616c6c6572206973206e6f7420746865206f776e6572600082015250565b60006139f16020836127b2565b91506139fc826139bb565b602082019050919050565b60006020820190508181036000830152613a20816139e4565b9050919050565b7f455243313135353a2073657474696e6720617070726f76616c2073746174757360008201527f20666f722073656c660000000000000000000000000000000000000000000000602082015250565b6000613a836029836127b2565b9150613a8e82613a27565b604082019050919050565b60006020820190508181036000830152613ab281613a76565b9050919050565b600081519050919050565b600082825260208201905092915050565b6000613ae082613ab9565b613aea8185613ac4565b9350613afa8185602086016127c3565b613b03816127f6565b840191505092915050565b600060a082019050613b236000830188612750565b613b306020830187612750565b613b3d604083018661266b565b613b4a606083018561266b565b8181036080830152613b5c8184613ad5565b90509695505050505050565b600081519050613b77816126c1565b92915050565b600060208284031215613b9357613b9261258d565b5b6000613ba184828501613b68565b91505092915050565b60008160e01c9050919050565b600060033d1115613bd65760046000803e613bd3600051613baa565b90505b90565b600060443d1015613be957613c6c565b613bf1612583565b60043d036004823e80513d602482011167ffffffffffffffff82111715613c19575050613c6c565b808201805167ffffffffffffffff811115613c375750505050613c6c565b80602083010160043d038501811115613c54575050505050613c6c565b613c63826020018501866128e9565b82955050505050505b90565b7f455243313135353a207472616e7366657220746f206e6f6e2d4552433131353560008201527f526563656976657220696d706c656d656e746572000000000000000000000000602082015250565b6000613ccb6034836127b2565b9150613cd682613c6f565b604082019050919050565b60006020820190508181036000830152613cfa81613cbe565b9050919050565b7f455243313135353a204552433131353552656365697665722072656a6563746560008201527f6420746f6b656e73000000000000000000000000000000000000000000000000602082015250565b6000613d5d6028836127b2565b9150613d6882613d01565b604082019050919050565b60006020820190508181036000830152613d8c81613d50565b9050919050565b600060a082019050613da86000830188612750565b613db56020830187612750565b8181036040830152613dc78186612d1c565b90508181036060830152613ddb8185612d1c565b90508181036080830152613def8184613ad5565b9050969550505050505056fea26469706673582212204c510a2922bacace65145967d451105270e560f7f2b83c62575ff404f21fd7b664736f6c63430008090033",
  "linkReferences": {},
  "deployedLinkReferences": {}
}