{
  "_format": "hh-sol-artifact-1",
  "contractName": "MultiToken",
  "sourceName": "contracts/MultiToken.sol",
  "abi": [
    {
      "inputs": [],
      "stateMutability": "nonpayable",
      "type": "constructor"
    },
    {
      "anonymous": false,
      "inputs": [
        {
          "indexed": true,
          "internalType": "address",
          "name": "account",
          "type": "address"
        },
        {
          "indexed": true,
          "internalType": "address",
          "name": "operator",
          "type": "address"
        },
        {
          "indexed": false,
          "internalType": "bool",
          "name": "approved",
          "type": "bool"
        }
      ],
      "name": "ApprovalForAll",
      "type": "event"
    },
    {
      "anonymous": false,
      "inputs": [
        {
          "indexed": true,
          "internalType": "address",
          "name": "previousOwner",
          "type": "address"
        },
        {
          "indexed": true,
          "internalType": "address",
          "name": "newOwner",
          "type": "address"
        }
      ],
      "name": "OwnershipTransferred",
      "type": "event"
    },
    {
      "anonymous": false,
      "inputs": [
        {
          "indexed": true,
          "internalType": "address",
          "name": "operator",
          "type": "address"
        },
        {
          "indexed": true,
          "internalType": "address",
          "name": "from",
          "type": "address"
        },
        {
          "indexed": true,
          "internalType": "address",
          "name": "to",
          "type": "address"
        },
        {
          "indexed": false,
          "internalType": "uint256[]",
          "name": "ids",
          "type": "uint256[]"
        },
        {
          "indexed": false,
          "internalType": "uint256[]",
          "name": "values",
          "type": "uint256[]"
        }
      ],
      "name": "TransferBatch",
      "type": "event"
    },
    {
      "anonymous": false,
      "inputs": [
        {
          "indexed": true,
          "internalType": "address",
          "name": "operator",
          "type": "address"
        },
        {
          "indexed": true,
          "internalType": "address",
          "name": "from",
          "type": "address"
        },
        {
          "indexed": true,
          "internalType": "address",
          "name": "to",
          "type": "address"
        },
        {
          "indexed": false,
          "internalType": "uint256",
          "name": "id",
          "type": "uint256"
        },
        {
          "indexed": false,
          "internalType": "uint256",
          "name": "value",
          "type": "uint256"
        }
      ],
      "name": "TransferSingle",
      "type": "event"
    },
    {
      "anonymous": false,
      "inputs": [
        {
          "indexed": false,
          "internalType": "string",
          "name": "value",
          "type": "string"
        },
        {
          "indexed": true,
          "internalType": "uint256",
          "name": "id",
          "type": "uint256"
        }
      ],
      "name": "URI",
      "type": "event"
    },
    {
      "inputs": [
        {
          "internalType": "address",
          "name": "account",
          "type": "address"
        },
        {
          "internalType": "uint256",
          "name": "id",
          "type": "uint256"
        }
      ],
      "name": "balanceOf",
      "outputs": [
        {
          "internalType": "uint256",
          "name": "",
          "type": "uint256"
        }
      ],
      "stateMutability": "view",
      "type": "function"
    },
    {
      "inputs": [
        {
          "internalType": "address[]",
          "name": "accounts",
          "type": "address[]"
        },
        {
          "internalType": "uint256[]",
          "name": "ids",
          "type": "uint256[]"
        }
      ],
      "name": "balanceOfBatch",
      "outputs": [
        {
          "internalType": "uint256[]",
          "name": "",
          "type": "uint256[]"
        }
      ],
      "stateMutability": "view",
      "type": "function"
    },
    {
      "inputs": [
        {
          "internalType": "address",
          "name": "account",
          "type": "address"
        },
        {
          "internalType": "uint256",
          "name": "id",
          "type": "uint256"
        },
        {
          "internalType": "uint256",
          "name": "amount",
          "type": "uint256"
        }
      ],
      "name": "burn",
      "outputs": [],
      "stateMutability": "nonpayable",
      "type": "function"
    },
    {
      "inputs": [
        {
          "internalType": "address",
          "name": "account",
          "type": "address"
        },
        {
          "internalType": "uint256[]",
          "name": "ids",
          "type": "uint256[]"
        },
        {
          "internalType": "uint256[]",
          "name": "amounts",
          "type": "uint256[]"
        }
      ],
      "name": "burnBatch",
      "outputs": [],
      "stateMutability": "nonpayable",
      "type": "function"
    },
    {
      "inputs": [
        {
          "internalType": "address",
          "name": "account",
          "type": "address"
        },
        {
          "internalType": "address",
          "name": "operator",
          "type": "address"
        }
      ],
      "name": "isApprovedForAll",
      "outputs": [
        {
          "internalType": "bool",
          "name": "",
          "type": "bool"
        }
      ],
      "stateMutability": "view",
      "type": "function"
    },
    {
      "inputs": [
        {
          "internalType": "address",
          "name": "account",
          "type": "address"
        },
        {
          "internalType": "uint256",
          "name": "id",
          "type": "uint256"
        },
        {
          "internalType": "uint256",
          "name": "amount",
          "type": "uint256"
        }
      ],
      "name": "mint",
      "outputs": [],
      "stateMutability": "nonpayable",
      "type": "function"
    },
    {
      "inputs": [
        {
          "internalType": "address",
          "name": "account",
          "type": "address"
        },
        {
          "internalType": "uint256[]",
          "name": "ids",
          "type": "uint256[]"
        },
        {
          "internalType": "uint256[]",
          "name": "amounts",
          "type": "uint256[]"
        }
      ],
      "name": "mintBatch",
      "outputs": [],
      "stateMutability": "nonpayable",
      "type": "function"
    },
    {
      "inputs": [],
      "name": "owner",
      "outputs": [
        {
          "internalType": "address",
          "name": "",
          "type": "address"
        }
      ],
      "stateMutability": "view",
      "type": "function"
    },
    {
      "inputs": [],
      "name": "renounceOwnership",
      "outputs": [],
      "stateMutability": "nonpayable",
      "type": "function"
    },
    {
      "inputs": [
        {
          "internalType": "address",
          "name": "from",
          "type": "address"
        },
        {
          "internalType": "address",
          "name": "to",
          "type": "address"
        },
        {
          "internalType": "uint256[]",
          "name": "ids",
          "type": "uint256[]"
        },
        {
          "internalType": "uint256[]",
          "name": "amounts",
          "type": "uint256[]"
        },
        {
          "internalType": "bytes",
          "name": "data",
          "type": "bytes"
        }
      ],
      "name": "safeBatchTransferFrom",
      "outputs": [],
      "stateMutability": "nonpayable",
      "type": "function"
    },
    {
      "inputs": [
        {
          "internalType": "address",
          "name": "from",
          "type": "address"
        },
        {
          "internalType": "address",
          "name": "to",
          "type": "address"
        },
        {
          "internalType": "uint256",
          "name": "id",
          "type": "uint256"
        },
        {
          "internalType": "uint256",
          "name": "amount",
          "type": "uint256"
        },
        {
          "internalType": "bytes",
          "name": "data",
          "type": "bytes"
        }
      ],
      "name": "safeTransferFrom",
      "outputs": [],
      "stateMutability": "nonpayable",
      "type": "function"
    },
    {
      "inputs": [
        {
          "internalType": "address",
          "name": "operator",
          "type": "address"
        },
        {
          "internalType": "bool",
          "name": "approved",
          "type": "bool"
        }
      ],
      "name": "setApprovalForAll",
      "outputs": [],
      "stateMutability": "nonpayable",
      "type": "function"
    },
    {
      "inputs": [
        {
          "internalType": "address",
          "name": "_minter",
          "type": "address"
        }
      ],
      "name": "setMinter",
      "outputs": [],
      "stateMutability": "nonpayable",
      "type": "function"
    },
    {
      "inputs": [
        {
          "internalType": "uint256",
          "name": "_tokenId",
          "type": "uint256"
        },
        {
          "internalType": "string",
          "name": "_newUri",
          "type": "string"
        }
      ],
      "name": "setURI",
      "outputs": [],
      "stateMutability": "nonpayable",
      "type": "function"
    },
    {
      "inputs": [
        {
          "internalType": "bytes4",
          "name": "interfaceId",
          "type": "bytes4"
        }
      ],
      "name": "supportsInterface",
      "outputs": [
        {
          "internalType": "bool",
          "name": "",
          "type": "bool"
        }
      ],
      "stateMutability": "view",
      "type": "function"
    },
    {
      "inputs": [
        {
          "internalType": "address",
          "name": "newOwner",
          "type": "address"
        }
      ],
      "name": "transferOwnership",
      "outputs": [],
      "stateMutability": "nonpayable",
      "type": "function"
    },
    {
      "inputs": [
        {
          "internalType": "uint256",
          "name": "_tokenId",
          "type": "uint256"
        }
      ],
      "name": "uri",
      "outputs": [
        {
          "internalType": "string",
          "name": "",
          "type": "string"
        }
      ],
      "stateMutability": "view",
      "type": "function"
    }
  ],
  "bytecode": "0x60806040523480156200001157600080fd5b506040518060200160405280600081525062000033816200005a60201b60201c565b5062000054620000486200007660201b60201c565b6200007e60201b60201c565b62000259565b80600290805190602001906200007292919062000144565b5050565b600033905090565b6000600360009054906101000a900473ffffffffffffffffffffffffffffffffffffffff16905081600360006101000a81548173ffffffffffffffffffffffffffffffffffffffff021916908373ffffffffffffffffffffffffffffffffffffffff1602179055508173ffffffffffffffffffffffffffffffffffffffff168173ffffffffffffffffffffffffffffffffffffffff167f8be0079c531659141344cd1fd0a4f28419497f9722a3daafe3b4186f6b6457e060405160405180910390a35050565b828054620001529062000223565b90600052602060002090601f016020900481019282620001765760008555620001c2565b82601f106200019157805160ff1916838001178555620001c2565b82800160010185558215620001c2579182015b82811115620001c1578251825591602001919060010190620001a4565b5b509050620001d19190620001d5565b5090565b5b80821115620001f0576000816000905550600101620001d6565b5090565b7f4e487b7100000000000000000000000000000000000000000000000000000000600052602260045260246000fd5b600060028204905060018216806200023c57607f821691505b60208210811415620002535762000252620001f4565b5b50919050565b613c8080620002696000396000f3fe608060405234801561001057600080fd5b506004361061010a5760003560e01c8063862440e2116100a2578063e985e9c511610071578063e985e9c51461029f578063f242432a146102cf578063f2fde38b146102eb578063f5298aca14610307578063fca3b5aa146103235761010a565b8063862440e21461022d5780638da5cb5b14610249578063a22cb46514610267578063d81d0a15146102835761010a565b80632eb2c2d6116100de5780632eb2c2d6146101bb5780634e1273f4146101d75780636b20c45414610207578063715018a6146102235761010a565b8062fdd58e1461010f57806301ffc9a71461013f5780630e89341c1461016f578063156e29f61461019f575b600080fd5b6101296004803603810190610124919061250c565b61033f565b604051610136919061255b565b60405180910390f35b610159600480360381019061015491906125ce565b610408565b6040516101669190612616565b60405180910390f35b61018960048036038101906101849190612631565b6104ea565b60405161019691906126f7565b60405180910390f35b6101b960048036038101906101b49190612719565b610537565b005b6101d560048036038101906101d09190612969565b6105b1565b005b6101f160048036038101906101ec9190612afb565b610652565b6040516101fe9190612c31565b60405180910390f35b610221600480360381019061021c9190612c53565b61076b565b005b61022b6107d5565b005b61024760048036038101906102429190612d7f565b6107e9565b005b61025161081d565b60405161025e9190612dea565b60405180910390f35b610281600480360381019061027c9190612e31565b610847565b005b61029d60048036038101906102989190612c53565b61085d565b005b6102b960048036038101906102b49190612e71565b6108d7565b6040516102c69190612616565b60405180910390f35b6102e960048036038101906102e49190612eb1565b61096b565b005b61030560048036038101906103009190612f48565b610a0c565b005b610321600480360381019061031c9190612719565b610a90565b005b61033d60048036038101906103389190612f48565b610afa565b005b60008073ffffffffffffffffffffffffffffffffffffffff168373ffffffffffffffffffffffffffffffffffffffff1614156103b0576040517f08c379a00000000000000000000000000000000000000000000000000000000081526004016103a790612fe7565b60405180910390fd5b60008083815260200190815260200160002060008473ffffffffffffffffffffffffffffffffffffffff1673ffffffffffffffffffffffffffffffffffffffff16815260200190815260200160002054905092915050565b60007fd9b67a26000000000000000000000000000000000000000000000000000000007bffffffffffffffffffffffffffffffffffffffffffffffffffffffff1916827bffffffffffffffffffffffffffffffffffffffffffffffffffffffff191614806104d357507f0e89341c000000000000000000000000000000000000000000000000000000007bffffffffffffffffffffffffffffffffffffffffffffffffffffffff1916827bffffffffffffffffffffffffffffffffffffffffffffffffffffffff1916145b806104e357506104e282610b46565b5b9050919050565b60606104f4610bb0565b6004600083815260200190815260200160002061051083610c2e565b604051602001610521929190613138565b6040516020818303038152906040529050919050565b600560009054906101000a900473ffffffffffffffffffffffffffffffffffffffff1673ffffffffffffffffffffffffffffffffffffffff163373ffffffffffffffffffffffffffffffffffffffff161461059157600080fd5b6105ac83838360405180602001604052806000815250610d06565b505050565b6105b9610eb7565b73ffffffffffffffffffffffffffffffffffffffff168573ffffffffffffffffffffffffffffffffffffffff1614806105ff57506105fe856105f9610eb7565b6108d7565b5b61063e576040517f08c379a0000000000000000000000000000000000000000000000000000000008152600401610635906131ce565b60405180910390fd5b61064b8585858585610ebf565b5050505050565b60608151835114610698576040517f08c379a000000000000000000000000000000000000000000000000000000000815260040161068f90613260565b60405180910390fd5b6000835167ffffffffffffffff8111156106b5576106b4612771565b5b6040519080825280602002602001820160405280156106e35781602001602082028036833780820191505090505b50905060005b84518110156107605761073085828151811061070857610707613280565b5b602002602001015185838151811061072357610722613280565b5b602002602001015161033f565b82828151811061074357610742613280565b5b60200260200101818152505080610759906132de565b90506106e9565b508091505092915050565b600560009054906101000a900473ffffffffffffffffffffffffffffffffffffffff1673ffffffffffffffffffffffffffffffffffffffff163373ffffffffffffffffffffffffffffffffffffffff16146107c557600080fd5b6107d08383836111e1565b505050565b6107dd610bb0565b6107e760006114b0565b565b6107f1610bb0565b806004600084815260200190815260200160002090805190602001906108189291906123c1565b505050565b6000600360009054906101000a900473ffffffffffffffffffffffffffffffffffffffff16905090565b610859610852610eb7565b8383611576565b5050565b600560009054906101000a900473ffffffffffffffffffffffffffffffffffffffff1673ffffffffffffffffffffffffffffffffffffffff163373ffffffffffffffffffffffffffffffffffffffff16146108b757600080fd5b6108d2838383604051806020016040528060008152506116e3565b505050565b6000600160008473ffffffffffffffffffffffffffffffffffffffff1673ffffffffffffffffffffffffffffffffffffffff16815260200190815260200160002060008373ffffffffffffffffffffffffffffffffffffffff1673ffffffffffffffffffffffffffffffffffffffff16815260200190815260200160002060009054906101000a900460ff16905092915050565b610973610eb7565b73ffffffffffffffffffffffffffffffffffffffff168573ffffffffffffffffffffffffffffffffffffffff1614806109b957506109b8856109b3610eb7565b6108d7565b5b6109f8576040517f08c379a00000000000000000000000000000000000000000000000000000000081526004016109ef906131ce565b60405180910390fd5b610a058585858585611910565b5050505050565b610a14610bb0565b600073ffffffffffffffffffffffffffffffffffffffff168173ffffffffffffffffffffffffffffffffffffffff161415610a84576040517f08c379a0000000000000000000000000000000000000000000000000000000008152600401610a7b90613399565b60405180910390fd5b610a8d816114b0565b50565b600560009054906101000a900473ffffffffffffffffffffffffffffffffffffffff1673ffffffffffffffffffffffffffffffffffffffff163373ffffffffffffffffffffffffffffffffffffffff1614610aea57600080fd5b610af5838383611bac565b505050565b610b02610bb0565b80600560006101000a81548173ffffffffffffffffffffffffffffffffffffffff021916908373ffffffffffffffffffffffffffffffffffffffff16021790555050565b60007f01ffc9a7000000000000000000000000000000000000000000000000000000007bffffffffffffffffffffffffffffffffffffffffffffffffffffffff1916827bffffffffffffffffffffffffffffffffffffffffffffffffffffffff1916149050919050565b610bb8610eb7565b73ffffffffffffffffffffffffffffffffffffffff16610bd661081d565b73ffffffffffffffffffffffffffffffffffffffff1614610c2c576040517f08c379a0000000000000000000000000000000000000000000000000000000008152600401610c2390613405565b60405180910390fd5b565b606060006001610c3d84611df3565b01905060008167ffffffffffffffff811115610c5c57610c5b612771565b5b6040519080825280601f01601f191660200182016040528015610c8e5781602001600182028036833780820191505090505b509050600082602001820190505b600115610cfb578080600190039150507f3031323334353637383961626364656600000000000000000000000000000000600a86061a8153600a8581610ce557610ce4613425565b5b0494506000851415610cf657610cfb565b610c9c565b819350505050919050565b600073ffffffffffffffffffffffffffffffffffffffff168473ffffffffffffffffffffffffffffffffffffffff161415610d76576040517f08c379a0000000000000000000000000000000000000000000000000000000008152600401610d6d906134c6565b60405180910390fd5b6000610d80610eb7565b90506000610d8d85611f46565b90506000610d9a85611f46565b9050610dab83600089858589611fc0565b8460008088815260200190815260200160002060008973ffffffffffffffffffffffffffffffffffffffff1673ffffffffffffffffffffffffffffffffffffffff1681526020019081526020016000206000828254610e0a91906134e6565b925050819055508673ffffffffffffffffffffffffffffffffffffffff16600073ffffffffffffffffffffffffffffffffffffffff168473ffffffffffffffffffffffffffffffffffffffff167fc3d58168c5ae7397731d063d5bbf3d657854427343f4c083240f7aacaa2d0f628989604051610e8892919061353c565b60405180910390a4610e9f83600089858589611fc8565b610eae83600089898989611fd0565b50505050505050565b600033905090565b8151835114610f03576040517f08c379a0000000000000000000000000000000000000000000000000000000008152600401610efa906135d7565b60405180910390fd5b600073ffffffffffffffffffffffffffffffffffffffff168473ffffffffffffffffffffffffffffffffffffffff161415610f73576040517f08c379a0000000000000000000000000000000000000000000000000000000008152600401610f6a90613669565b60405180910390fd5b6000610f7d610eb7565b9050610f8d818787878787611fc0565b60005b845181101561113e576000858281518110610fae57610fad613280565b5b602002602001015190506000858381518110610fcd57610fcc613280565b5b60200260200101519050600080600084815260200190815260200160002060008b73ffffffffffffffffffffffffffffffffffffffff1673ffffffffffffffffffffffffffffffffffffffff1681526020019081526020016000205490508181101561106e576040517f08c379a0000000000000000000000000000000000000000000000000000000008152600401611065906136fb565b60405180910390fd5b81810360008085815260200190815260200160002060008c73ffffffffffffffffffffffffffffffffffffffff1673ffffffffffffffffffffffffffffffffffffffff168152602001908152602001600020819055508160008085815260200190815260200160002060008b73ffffffffffffffffffffffffffffffffffffffff1673ffffffffffffffffffffffffffffffffffffffff168152602001908152602001600020600082825461112391906134e6565b9250508190555050505080611137906132de565b9050610f90565b508473ffffffffffffffffffffffffffffffffffffffff168673ffffffffffffffffffffffffffffffffffffffff168273ffffffffffffffffffffffffffffffffffffffff167f4a39dc06d4c0dbc64b70af90fd698a233a518aa5d07e595d983b8c0526c8f7fb87876040516111b592919061371b565b60405180910390a46111cb818787878787611fc8565b6111d98187878787876121b7565b505050505050565b600073ffffffffffffffffffffffffffffffffffffffff168373ffffffffffffffffffffffffffffffffffffffff161415611251576040517f08c379a0000000000000000000000000000000000000000000000000000000008152600401611248906137c4565b60405180910390fd5b8051825114611295576040517f08c379a000000000000000000000000000000000000000000000000000000000815260040161128c906135d7565b60405180910390fd5b600061129f610eb7565b90506112bf81856000868660405180602001604052806000815250611fc0565b60005b835181101561140c5760008482815181106112e0576112df613280565b5b6020026020010151905060008483815181106112ff576112fe613280565b5b60200260200101519050600080600084815260200190815260200160002060008973ffffffffffffffffffffffffffffffffffffffff1673ffffffffffffffffffffffffffffffffffffffff168152602001908152602001600020549050818110156113a0576040517f08c379a000000000000000000000000000000000000000000000000000000000815260040161139790613856565b60405180910390fd5b81810360008085815260200190815260200160002060008a73ffffffffffffffffffffffffffffffffffffffff1673ffffffffffffffffffffffffffffffffffffffff168152602001908152602001600020819055505050508080611404906132de565b9150506112c2565b50600073ffffffffffffffffffffffffffffffffffffffff168473ffffffffffffffffffffffffffffffffffffffff168273ffffffffffffffffffffffffffffffffffffffff167f4a39dc06d4c0dbc64b70af90fd698a233a518aa5d07e595d983b8c0526c8f7fb868660405161148492919061371b565b60405180910390a46114aa81856000868660405180602001604052806000815250611fc8565b50505050565b6000600360009054906101000a900473ffffffffffffffffffffffffffffffffffffffff16905081600360006101000a81548173ffffffffffffffffffffffffffffffffffffffff021916908373ffffffffffffffffffffffffffffffffffffffff1602179055508173ffffffffffffffffffffffffffffffffffffffff168173ffffffffffffffffffffffffffffffffffffffff167f8be0079c531659141344cd1fd0a4f28419497f9722a3daafe3b4186f6b6457e060405160405180910390a35050565b8173ffffffffffffffffffffffffffffffffffffffff168373ffffffffffffffffffffffffffffffffffffffff1614156115e5576040517f08c379a00000000000000000000000000000000000000000000000000000000081526004016115dc906138e8565b60405180910390fd5b80600160008573ffffffffffffffffffffffffffffffffffffffff1673ffffffffffffffffffffffffffffffffffffffff16815260200190815260200160002060008473ffffffffffffffffffffffffffffffffffffffff1673ffffffffffffffffffffffffffffffffffffffff16815260200190815260200160002060006101000a81548160ff0219169083151502179055508173ffffffffffffffffffffffffffffffffffffffff168373ffffffffffffffffffffffffffffffffffffffff167f17307eab39ab6107e8899845ad3d59bd9653f200f220920489ca2b5937696c31836040516116d69190612616565b60405180910390a3505050565b600073ffffffffffffffffffffffffffffffffffffffff168473ffffffffffffffffffffffffffffffffffffffff161415611753576040517f08c379a000000000000000000000000000000000000000000000000000000000815260040161174a906134c6565b60405180910390fd5b8151835114611797576040517f08c379a000000000000000000000000000000000000000000000000000000000815260040161178e906135d7565b60405180910390fd5b60006117a1610eb7565b90506117b281600087878787611fc0565b60005b845181101561186b578381815181106117d1576117d0613280565b5b60200260200101516000808784815181106117ef576117ee613280565b5b6020026020010151815260200190815260200160002060008873ffffffffffffffffffffffffffffffffffffffff1673ffffffffffffffffffffffffffffffffffffffff168152602001908152602001600020600082825461185191906134e6565b925050819055508080611863906132de565b9150506117b5565b508473ffffffffffffffffffffffffffffffffffffffff16600073ffffffffffffffffffffffffffffffffffffffff168273ffffffffffffffffffffffffffffffffffffffff167f4a39dc06d4c0dbc64b70af90fd698a233a518aa5d07e595d983b8c0526c8f7fb87876040516118e392919061371b565b60405180910390a46118fa81600087878787611fc8565b611909816000878787876121b7565b5050505050565b600073ffffffffffffffffffffffffffffffffffffffff168473ffffffffffffffffffffffffffffffffffffffff161415611980576040517f08c379a000000000000000000000000000000000000000000000000000000000815260040161197790613669565b60405180910390fd5b600061198a610eb7565b9050600061199785611f46565b905060006119a485611f46565b90506119b4838989858589611fc0565b600080600088815260200190815260200160002060008a73ffffffffffffffffffffffffffffffffffffffff1673ffffffffffffffffffffffffffffffffffffffff16815260200190815260200160002054905085811015611a4b576040517f08c379a0000000000000000000000000000000000000000000000000000000008152600401611a42906136fb565b60405180910390fd5b85810360008089815260200190815260200160002060008b73ffffffffffffffffffffffffffffffffffffffff1673ffffffffffffffffffffffffffffffffffffffff168152602001908152602001600020819055508560008089815260200190815260200160002060008a73ffffffffffffffffffffffffffffffffffffffff1673ffffffffffffffffffffffffffffffffffffffff1681526020019081526020016000206000828254611b0091906134e6565b925050819055508773ffffffffffffffffffffffffffffffffffffffff168973ffffffffffffffffffffffffffffffffffffffff168573ffffffffffffffffffffffffffffffffffffffff167fc3d58168c5ae7397731d063d5bbf3d657854427343f4c083240f7aacaa2d0f628a8a604051611b7d92919061353c565b60405180910390a4611b93848a8a86868a611fc8565b611ba1848a8a8a8a8a611fd0565b505050505050505050565b600073ffffffffffffffffffffffffffffffffffffffff168373ffffffffffffffffffffffffffffffffffffffff161415611c1c576040517f08c379a0000000000000000000000000000000000000000000000000000000008152600401611c13906137c4565b60405180910390fd5b6000611c26610eb7565b90506000611c3384611f46565b90506000611c4084611f46565b9050611c6083876000858560405180602001604052806000815250611fc0565b600080600087815260200190815260200160002060008873ffffffffffffffffffffffffffffffffffffffff1673ffffffffffffffffffffffffffffffffffffffff16815260200190815260200160002054905084811015611cf7576040517f08c379a0000000000000000000000000000000000000000000000000000000008152600401611cee90613856565b60405180910390fd5b84810360008088815260200190815260200160002060008973ffffffffffffffffffffffffffffffffffffffff1673ffffffffffffffffffffffffffffffffffffffff16815260200190815260200160002081905550600073ffffffffffffffffffffffffffffffffffffffff168773ffffffffffffffffffffffffffffffffffffffff168573ffffffffffffffffffffffffffffffffffffffff167fc3d58168c5ae7397731d063d5bbf3d657854427343f4c083240f7aacaa2d0f628989604051611dc492919061353c565b60405180910390a4611dea84886000868660405180602001604052806000815250611fc8565b50505050505050565b600080600090507a184f03e93ff9f4daa797ed6e38ed64bf6a1f0100000000000000008310611e51577a184f03e93ff9f4daa797ed6e38ed64bf6a1f0100000000000000008381611e4757611e46613425565b5b0492506040810190505b6d04ee2d6d415b85acef81000000008310611e8e576d04ee2d6d415b85acef81000000008381611e8457611e83613425565b5b0492506020810190505b662386f26fc100008310611ebd57662386f26fc100008381611eb357611eb2613425565b5b0492506010810190505b6305f5e1008310611ee6576305f5e1008381611edc57611edb613425565b5b0492506008810190505b6127108310611f0b576127108381611f0157611f00613425565b5b0492506004810190505b60648310611f2e5760648381611f2457611f23613425565b5b0492506002810190505b600a8310611f3d576001810190505b80915050919050565b60606000600167ffffffffffffffff811115611f6557611f64612771565b5b604051908082528060200260200182016040528015611f935781602001602082028036833780820191505090505b5090508281600081518110611fab57611faa613280565b5b60200260200101818152505080915050919050565b505050505050565b505050505050565b611fef8473ffffffffffffffffffffffffffffffffffffffff1661239e565b156121af578373ffffffffffffffffffffffffffffffffffffffff1663f23a6e6187878686866040518663ffffffff1660e01b815260040161203595949392919061395d565b602060405180830381600087803b15801561204f57600080fd5b505af192505050801561208057506040513d601f19601f8201168201806040525081019061207d91906139cc565b60015b6121265761208c613a06565b806308c379a014156120e957506120a1613a28565b806120ac57506120eb565b806040517f08c379a00000000000000000000000000000000000000000000000000000000081526004016120e091906126f7565b60405180910390fd5b505b6040517f08c379a000000000000000000000000000000000000000000000000000000000815260040161211d90613b30565b60405180910390fd5b63f23a6e6160e01b7bffffffffffffffffffffffffffffffffffffffffffffffffffffffff1916817bffffffffffffffffffffffffffffffffffffffffffffffffffffffff1916146121ad576040517f08c379a00000000000000000000000000000000000000000000000000000000081526004016121a490613bc2565b60405180910390fd5b505b505050505050565b6121d68473ffffffffffffffffffffffffffffffffffffffff1661239e565b15612396578373ffffffffffffffffffffffffffffffffffffffff1663bc197c8187878686866040518663ffffffff1660e01b815260040161221c959493929190613be2565b602060405180830381600087803b15801561223657600080fd5b505af192505050801561226757506040513d601f19601f8201168201806040525081019061226491906139cc565b60015b61230d57612273613a06565b806308c379a014156122d05750612288613a28565b8061229357506122d2565b806040517f08c379a00000000000000000000000000000000000000000000000000000000081526004016122c791906126f7565b60405180910390fd5b505b6040517f08c379a000000000000000000000000000000000000000000000000000000000815260040161230490613b30565b60405180910390fd5b63bc197c8160e01b7bffffffffffffffffffffffffffffffffffffffffffffffffffffffff1916817bffffffffffffffffffffffffffffffffffffffffffffffffffffffff191614612394576040517f08c379a000000000000000000000000000000000000000000000000000000000815260040161238b90613bc2565b60405180910390fd5b505b505050505050565b6000808273ffffffffffffffffffffffffffffffffffffffff163b119050919050565b8280546123cd90613036565b90600052602060002090601f0160209004810192826123ef5760008555612436565b82601f1061240857805160ff1916838001178555612436565b82800160010185558215612436579182015b8281111561243557825182559160200191906001019061241a565b5b5090506124439190612447565b5090565b5b80821115612460576000816000905550600101612448565b5090565b6000604051905090565b600080fd5b600080fd5b600073ffffffffffffffffffffffffffffffffffffffff82169050919050565b60006124a382612478565b9050919050565b6124b381612498565b81146124be57600080fd5b50565b6000813590506124d0816124aa565b92915050565b6000819050919050565b6124e9816124d6565b81146124f457600080fd5b50565b600081359050612506816124e0565b92915050565b600080604083850312156125235761252261246e565b5b6000612531858286016124c1565b9250506020612542858286016124f7565b9150509250929050565b612555816124d6565b82525050565b6000602082019050612570600083018461254c565b92915050565b60007fffffffff0000000000000000000000000000000000000000000000000000000082169050919050565b6125ab81612576565b81146125b657600080fd5b50565b6000813590506125c8816125a2565b92915050565b6000602082840312156125e4576125e361246e565b5b60006125f2848285016125b9565b91505092915050565b60008115159050919050565b612610816125fb565b82525050565b600060208201905061262b6000830184612607565b92915050565b6000602082840312156126475761264661246e565b5b6000612655848285016124f7565b91505092915050565b600081519050919050565b600082825260208201905092915050565b60005b8381101561269857808201518184015260208101905061267d565b838111156126a7576000848401525b50505050565b6000601f19601f8301169050919050565b60006126c98261265e565b6126d38185612669565b93506126e381856020860161267a565b6126ec816126ad565b840191505092915050565b6000602082019050818103600083015261271181846126be565b905092915050565b6000806000606084860312156127325761273161246e565b5b6000612740868287016124c1565b9350506020612751868287016124f7565b9250506040612762868287016124f7565b9150509250925092565b600080fd5b7f4e487b7100000000000000000000000000000000000000000000000000000000600052604160045260246000fd5b6127a9826126ad565b810181811067ffffffffffffffff821117156127c8576127c7612771565b5b80604052505050565b60006127db612464565b90506127e782826127a0565b919050565b600067ffffffffffffffff82111561280757612806612771565b5b602082029050602081019050919050565b600080fd5b600061283061282b846127ec565b6127d1565b9050808382526020820190506020840283018581111561285357612852612818565b5b835b8181101561287c578061286888826124f7565b845260208401935050602081019050612855565b5050509392505050565b600082601f83011261289b5761289a61276c565b5b81356128ab84826020860161281d565b91505092915050565b600080fd5b600067ffffffffffffffff8211156128d4576128d3612771565b5b6128dd826126ad565b9050602081019050919050565b82818337600083830152505050565b600061290c612907846128b9565b6127d1565b905082815260208101848484011115612928576129276128b4565b5b6129338482856128ea565b509392505050565b600082601f8301126129505761294f61276c565b5b81356129608482602086016128f9565b91505092915050565b600080600080600060a086880312156129855761298461246e565b5b6000612993888289016124c1565b95505060206129a4888289016124c1565b945050604086013567ffffffffffffffff8111156129c5576129c4612473565b5b6129d188828901612886565b935050606086013567ffffffffffffffff8111156129f2576129f1612473565b5b6129fe88828901612886565b925050608086013567ffffffffffffffff811115612a1f57612a1e612473565b5b612a2b8882890161293b565b9150509295509295909350565b600067ffffffffffffffff821115612a5357612a52612771565b5b602082029050602081019050919050565b6000612a77612a7284612a38565b6127d1565b90508083825260208201905060208402830185811115612a9a57612a99612818565b5b835b81811015612ac35780612aaf88826124c1565b845260208401935050602081019050612a9c565b5050509392505050565b600082601f830112612ae257612ae161276c565b5b8135612af2848260208601612a64565b91505092915050565b60008060408385031215612b1257612b1161246e565b5b600083013567ffffffffffffffff811115612b3057612b2f612473565b5b612b3c85828601612acd565b925050602083013567ffffffffffffffff811115612b5d57612b5c612473565b5b612b6985828601612886565b9150509250929050565b600081519050919050565b600082825260208201905092915050565b6000819050602082019050919050565b612ba8816124d6565b82525050565b6000612bba8383612b9f565b60208301905092915050565b6000602082019050919050565b6000612bde82612b73565b612be88185612b7e565b9350612bf383612b8f565b8060005b83811015612c24578151612c0b8882612bae565b9750612c1683612bc6565b925050600181019050612bf7565b5085935050505092915050565b60006020820190508181036000830152612c4b8184612bd3565b905092915050565b600080600060608486031215612c6c57612c6b61246e565b5b6000612c7a868287016124c1565b935050602084013567ffffffffffffffff811115612c9b57612c9a612473565b5b612ca786828701612886565b925050604084013567ffffffffffffffff811115612cc857612cc7612473565b5b612cd486828701612886565b9150509250925092565b600067ffffffffffffffff821115612cf957612cf8612771565b5b612d02826126ad565b9050602081019050919050565b6000612d22612d1d84612cde565b6127d1565b905082815260208101848484011115612d3e57612d3d6128b4565b5b612d498482856128ea565b509392505050565b600082601f830112612d6657612d6561276c565b5b8135612d76848260208601612d0f565b91505092915050565b60008060408385031215612d9657612d9561246e565b5b6000612da4858286016124f7565b925050602083013567ffffffffffffffff811115612dc557612dc4612473565b5b612dd185828601612d51565b9150509250929050565b612de481612498565b82525050565b6000602082019050612dff6000830184612ddb565b92915050565b612e0e816125fb565b8114612e1957600080fd5b50565b600081359050612e2b81612e05565b92915050565b60008060408385031215612e4857612e4761246e565b5b6000612e56858286016124c1565b9250506020612e6785828601612e1c565b9150509250929050565b60008060408385031215612e8857612e8761246e565b5b6000612e96858286016124c1565b9250506020612ea7858286016124c1565b9150509250929050565b600080600080600060a08688031215612ecd57612ecc61246e565b5b6000612edb888289016124c1565b9550506020612eec888289016124c1565b9450506040612efd888289016124f7565b9350506060612f0e888289016124f7565b925050608086013567ffffffffffffffff811115612f2f57612f2e612473565b5b612f3b8882890161293b565b9150509295509295909350565b600060208284031215612f5e57612f5d61246e565b5b6000612f6c848285016124c1565b91505092915050565b7f455243313135353a2061646472657373207a65726f206973206e6f742061207660008201527f616c6964206f776e657200000000000000000000000000000000000000000000602082015250565b6000612fd1602a83612669565b9150612fdc82612f75565b604082019050919050565b6000602082019050818103600083015261300081612fc4565b9050919050565b7f4e487b7100000000000000000000000000000000000000000000000000000000600052602260045260246000fd5b6000600282049050600182168061304e57607f821691505b6020821081141561306257613061613007565b5b50919050565b600081905092915050565b60008190508160005260206000209050919050565b6000815461309581613036565b61309f8186613068565b945060018216600081146130ba57600181146130cb576130fe565b60ff198316865281860193506130fe565b6130d485613073565b60005b838110156130f6578154818901526001820191506020810190506130d7565b838801955050505b50505092915050565b60006131128261265e565b61311c8185613068565b935061312c81856020860161267a565b80840191505092915050565b60006131448285613088565b91506131508284613107565b91508190509392505050565b7f455243313135353a2063616c6c6572206973206e6f7420746f6b656e206f776e60008201527f6572206f7220617070726f766564000000000000000000000000000000000000602082015250565b60006131b8602e83612669565b91506131c38261315c565b604082019050919050565b600060208201905081810360008301526131e7816131ab565b9050919050565b7f455243313135353a206163636f756e747320616e6420696473206c656e67746860008201527f206d69736d617463680000000000000000000000000000000000000000000000602082015250565b600061324a602983612669565b9150613255826131ee565b604082019050919050565b600060208201905081810360008301526132798161323d565b9050919050565b7f4e487b7100000000000000000000000000000000000000000000000000000000600052603260045260246000fd5b7f4e487b7100000000000000000000000000000000000000000000000000000000600052601160045260246000fd5b60006132e9826124d6565b91507fffffffffffffffffffffffffffffffffffffffffffffffffffffffffffffffff82141561331c5761331b6132af565b5b600182019050919050565b7f4f776e61626c653a206e6577206f776e657220697320746865207a65726f206160008201527f6464726573730000000000000000000000000000000000000000000000000000602082015250565b6000613383602683612669565b915061338e82613327565b604082019050919050565b600060208201905081810360008301526133b281613376565b9050919050565b7f4f776e61626c653a2063616c6c6572206973206e6f7420746865206f776e6572600082015250565b60006133ef602083612669565b91506133fa826133b9565b602082019050919050565b6000602082019050818103600083015261341e816133e2565b9050919050565b7f4e487b7100000000000000000000000000000000000000000000000000000000600052601260045260246000fd5b7f455243313135353a206d696e7420746f20746865207a65726f2061646472657360008201527f7300000000000000000000000000000000000000000000000000000000000000602082015250565b60006134b0602183612669565b91506134bb82613454565b604082019050919050565b600060208201905081810360008301526134df816134a3565b9050919050565b60006134f1826124d6565b91506134fc836124d6565b9250827fffffffffffffffffffffffffffffffffffffffffffffffffffffffffffffffff03821115613531576135306132af565b5b828201905092915050565b6000604082019050613551600083018561254c565b61355e602083018461254c565b9392505050565b7f455243313135353a2069647320616e6420616d6f756e7473206c656e6774682060008201527f6d69736d61746368000000000000000000000000000000000000000000000000602082015250565b60006135c1602883612669565b91506135cc82613565565b604082019050919050565b600060208201905081810360008301526135f0816135b4565b9050919050565b7f455243313135353a207472616e7366657220746f20746865207a65726f20616460008201527f6472657373000000000000000000000000000000000000000000000000000000602082015250565b6000613653602583612669565b915061365e826135f7565b604082019050919050565b6000602082019050818103600083015261368281613646565b9050919050565b7f455243313135353a20696e73756666696369656e742062616c616e636520666f60008201527f72207472616e7366657200000000000000000000000000000000000000000000602082015250565b60006136e5602a83612669565b91506136f082613689565b604082019050919050565b60006020820190508181036000830152613714816136d8565b9050919050565b600060408201905081810360008301526137358185612bd3565b905081810360208301526137498184612bd3565b90509392505050565b7f455243313135353a206275726e2066726f6d20746865207a65726f206164647260008201527f6573730000000000000000000000000000000000000000000000000000000000602082015250565b60006137ae602383612669565b91506137b982613752565b604082019050919050565b600060208201905081810360008301526137dd816137a1565b9050919050565b7f455243313135353a206275726e20616d6f756e7420657863656564732062616c60008201527f616e636500000000000000000000000000000000000000000000000000000000602082015250565b6000613840602483612669565b915061384b826137e4565b604082019050919050565b6000602082019050818103600083015261386f81613833565b9050919050565b7f455243313135353a2073657474696e6720617070726f76616c2073746174757360008201527f20666f722073656c660000000000000000000000000000000000000000000000602082015250565b60006138d2602983612669565b91506138dd82613876565b604082019050919050565b60006020820190508181036000830152613901816138c5565b9050919050565b600081519050919050565b600082825260208201905092915050565b600061392f82613908565b6139398185613913565b935061394981856020860161267a565b613952816126ad565b840191505092915050565b600060a0820190506139726000830188612ddb565b61397f6020830187612ddb565b61398c604083018661254c565b613999606083018561254c565b81810360808301526139ab8184613924565b90509695505050505050565b6000815190506139c6816125a2565b92915050565b6000602082840312156139e2576139e161246e565b5b60006139f0848285016139b7565b91505092915050565b60008160e01c9050919050565b600060033d1115613a255760046000803e613a226000516139f9565b90505b90565b600060443d1015613a3857613abb565b613a40612464565b60043d036004823e80513d602482011167ffffffffffffffff82111715613a68575050613abb565b808201805167ffffffffffffffff811115613a865750505050613abb565b80602083010160043d038501811115613aa3575050505050613abb565b613ab2826020018501866127a0565b82955050505050505b90565b7f455243313135353a207472616e7366657220746f206e6f6e2d4552433131353560008201527f526563656976657220696d706c656d656e746572000000000000000000000000602082015250565b6000613b1a603483612669565b9150613b2582613abe565b604082019050919050565b60006020820190508181036000830152613b4981613b0d565b9050919050565b7f455243313135353a204552433131353552656365697665722072656a6563746560008201527f6420746f6b656e73000000000000000000000000000000000000000000000000602082015250565b6000613bac602883612669565b9150613bb782613b50565b604082019050919050565b60006020820190508181036000830152613bdb81613b9f565b9050919050565b600060a082019050613bf76000830188612ddb565b613c046020830187612ddb565b8181036040830152613c168186612bd3565b90508181036060830152613c2a8185612bd3565b90508181036080830152613c3e8184613924565b9050969550505050505056fea2646970667358221220f42f43c9b34664a50714b5ba0a20d23f63c7cf9b6e5efb8f11c05cf964755de564736f6c63430008090033",
  "linkReferences": {},
  "deployedLinkReferences": {}
}